:020000040050AA
:100000000000012021045000090A50000B0A500092
:100010000D0A50000F0A5000110A500000000000A5
:10002000000000000000000000000000130A500063
:10003000150A500000000000170A5000190A50006D
:100040001B0A50001B0A50001B0A50001B0A5000DC
:100050001B0A50001B0A50001B0A50001B0A5000CC
:100060001B0A50001B0A50001B0A50001B0A5000BC
:100070001B0A50001B0A50001B0A50001B0A5000AC
:100400001B0A50001B0A500000BF00BF00BF00BF06
:10041000FFF7FABF0000000000000000000000002D
:1004200072B64FF000004FF000014FF000024FF0A5
:1004300000034FF000044FF000054FF000064FF0AE
:1004400000074FF0640001380028FCDC40480168D8
:100450004FF0807201EA02010029F7D03D483E4981
:1004600001603E49086820F0040040F00100086087
:100470003B49086820F0040040F00100086039485A
:1004800080F30888384801684FF00000814200D0AE
:1004900015E036484CF2205101604DF628110160FC
:1004A0003348344901600AE033484CF2205101607E
:1004B0004DF62811016031482E490160FFE73048B0
:1004C000002814D02F4801684FF0010201EA020110
:1004D000002902D02C492D4A01E02D492B4A521AFD
:1004E000013A04DD0020002309C1083AFCDA29485A
:1004F000002809D02849294A521A013A04DD00206F
:10050000002309C1083AFCDA2548002809D025490A
:10051000254A521A013A04DD0020002309C1083A95
:10052000FCDA224800684FF05A318842F9D000F0D6
:100530009FFA00F013FB62B600F00EFB00F038F8F3
:1005400000BFFEE7AFF30080AFF30080AFF30080A1
:1005500010C32D4008ED00E00000002094EF00E003
:1005600090EF00E00000012004002640100027402A
:1005700000002740400000FF10C0464000C0464039
:100580000100000000C028400060402000C0402062
:10059000A0604020010000000000002000000120B9
:1005A00001000000000000000080000020614020E9
:1005B00008B5002002F04CFB002002F073FB002085
:1005C00002F082FB002002F001FC0121532002F026
:1005D00079FA0121552002F075FAFEE7024B5868BE
:1005E00000F00300704700BF00002640F8B500236C
:1005F000044681881D461E489AB2914214D8216A49
:10060000022004F089F8E368668818791F680023DF
:10061000DFF864C09AB2964214D81422002115481B
:10062000BDE8F84000F0E7B9666916F81360FF2EE0
:1006300006D0B2F5CC7F03D803F5247240F82250DF
:100640000133D9E7A268022802EB830132F8235074
:100650008A785CF8221005D085F003020A4402F57E
:100660009852107001EB85010133C1F84072D1E757
:1006700000002940508140203C4B500013888342A9
:1006800070B50D4607D80A23012200217C2002F014
:10069000B8F8002070BD936953F8204014F00104AD
:1006A00001D1F023F0E71823126958431318145AA4
:1006B0001E7A5B7C73B90A21C4F3071304F00F029E
:1006C000012001FB0633144900FA02F231F813301D
:1006D0001A42DFD003F074FA104B012D53F8262094
:1006E00002EB8402D2F8403208D123F4002343F411
:1006F0000013C2F8403203F07DFACAE725B923F4AB
:10070000001343F40023F4E7022D0CBF43F420133D
:1007100023F42013EDE700BF508140203C4B5000F4
:100720002DE9F84F138881460C461746834208D8B6
:100730000A23042200217C2002F063F80020BDE897
:10074000F88F936953F8205015F0010501D1F0237B
:10075000EFE74FF0180A12690AFB00FA02EB0A03EE
:100760009D7C0DB90E23E4E7282900F2D18032F8F0
:100770000A601D7A03F056FA664B06F00F0101225B
:1007800053F825000A2302FA01F1634303EB161321
:1007900030F81330194200F0B980122C00F0AE800E
:1007A0001CD80F2C11D85C4B4FEA8608002C79D04E
:1007B00053F825309844D8F8401221F007010C4333
:1007C00044F40014C8F8404238E0102C00F0968041
:1007D00000223146284602F069FB2FE04E48B70060
:1007E000212C50F825301F4439D94C4B0022D7F822
:1007F000401233F815E04A4B53F825301FFA82FCBB
:10080000E64520D84FF0000C03EBCC0321F00701A4
:10081000213C93F807E09A790C43B3F804C050F8F0
:100820002E3044F4201403EB8C03C3F8402A00223A
:100830003146284602F03AFBC7F84042002403F054
:100840000BFA20467BE733F8329003EBC208B14540
:1008500003D198F80280A045D6D00132CEE7314AC4
:10086000D7F8403252F8252032F816102E4A0C44A0
:1008700052F8252004F18044133C02EB840191F8E6
:1008800003E091F802C032F8241050F82E2002EB59
:100890008102C2F840CA23F4001323F0070343F493
:1008A0000024C4E753F82530314628469844D8F848
:1008B00040B202F0FBFA3B692BF007055344DE68B7
:1008C000012E06D145F400153946484602F012FBC8
:1008D00002E04EB945F400253A4631464846FFF756
:1008E000CDFEC8F84052AAE7022E02D145F42015E9
:1008F000EAE72BF4201525F00705EDE7064B53F842
:10090000257007EB8607D7F84032C4E70D2496E739
:100910000D2014E7F06C50003C4B5000F46C50007C
:10092000E46C5000E86C5000EC6C50002DE9F84F7E
:100930000446068800251827DFF85C80ABB29E428B
:1009400001D8BDE8F88F07FB05F9226902EB09031E
:10095000597CF1B932F809A093F808B003F094F982
:10096000216958F82B20494402EB8A024968D2F8E1
:10097000403288024CBF43F4001323F400130903F0
:100980004CBF43F4002323F40023C2F8403203F0A9
:1009900095F90135D2E700BF3C4B5000EFF31080D2
:1009A0007047EFF310807047EFF31080704782B00C
:1009B0008DF807009DF807300BB900BEFDE702B0C7
:1009C0007047884210B501EB020402D984422346E5
:1009D00007D8431EA14208D011F8012B03F8012FBC
:1009E000F8E7024401468A4200D110BD13F8014DD8
:1009F00002F8014DF7E702440346934200D17047E5
:100A000003F8011BF9E70000FEE7FEE7FEE7FEE75B
:100A1000FEE7FEE7FEE7FEE7FEE7FEE74FF0E02237
:100A2000D2F80C3D23F4E0631843C2F80C0D704774
:100A30004309012200F01F00403302FA00F04FF09A
:100A4000E02242F8230070474309012200F01F0012
:100A5000603302FA00F04FF0E02242F823007047C2
:100A6000090100F1E020C9B280F8001470470000CD
:100A70002DE9F8431F4B00251E68B54207D11E4CD7
:100A800000262768B046BE4221D1BDE8F883D3E9ED
:100A90000101DA680024521A02F0030C9208A24203
:100AA00009D101EB820100EB82020020844508D8C5
:100AB00001350C33E1E751F8247040F8247001341B
:100AC000EDE711F8014B013002F8014BEEE7D4E9F4
:100AD000013500210136ED1A1846083425F00302CD
:100AE0004FEA9509FFF787FFAA0718BF40F829804A
:100AF000C9E700BF70895000BC895000144B0C221C
:100B0000F0B5144D1E6802FB0533B54200D3F0BDAD
:100B1000D3E90101DA680024521A02F0030C9208AA
:100B2000A24209D101EB820100EB82020020844540
:100B300008D801350C33E8E751F8247040F82470E8
:100B40000134EDE711F8014B013002F8014BEEE7FB
:100B500070895000000000007047FEE7A04B0021A4
:100B60005B6813F0030F0CBF01200020F0B54B00B1
:100B7000013103F18043F02903F51813B3F88028FD
:100B800092B242EA0002A3F88028F0D14FF0E022AE
:100B9000D2F8883D43F47003C2F8883DBFF34F8F0D
:100BA000BFF36F8F8F4B00248F491C60D9638F492F
:100BB0008F4859608F49904D19649049996001F5AB
:100BC000800158648E48D8608E4898644FF0D850A1
:100BD00018618D48D8648D4858618D4818658D48D6
:100BE00098618D4840EA45008C4D58658C48D86125
:100BF0008C4840EA45059D658B4D1D628B4D40EA52
:100C00004500D8654FF08040586289481866894889
:100C100098624FF0CE405C66D862874898664FF085
:100C2000D04018638548D8664FF0604058638448C8
:100C3000186799635C67BFF34F8FBFF36F8FD2F86C
:100C4000141D8F0303D4D2F8142DD60366D54FF0AC
:100C5000E0210022C1F8842DBFF34F8FD1F8802D01
:100C600043F6E075C2F3C904C2F34E32520102EA00
:100C70000507204647EA8076C1F8746FBFF34F8FAF
:100C80000138F7D2203A12F1200FF0D1D1F8842D9B
:100C900042F00102C1F8842D0022C1F8502FBFF3A9
:100CA0004F8FC1F8842DBFF34F8FD1F8802D43F6BD
:100CB000E0754FF0E021C2F3C904C2F34E32520195
:100CC00002EA0507204647EA8076C1F8746FBFF351
:100CD0004F8F0138F7D2203A12F1200FF0D1D1F81E
:100CE000842D42F00102C1F8842D0022C1F8502F5A
:100CF000BFF34F8FD1F8142D22F40032C1F8142D18
:100D0000BFF34F8FBFF36F8FD1F8142D22F48032D1
:100D1000C1F8142DBFF34F8FBFF36F8F00224FF038
:100D2000E020114603EB8204E56BED070AD5C0F81D
:100D3000981D013153F82250C9B2C0F89C5DE46B94
:100D4000C0F8A04D01320F2AECD14FF0E023D3F8C8
:100D5000942D42F00302C3F8942DBFF34F8FBFF3DD
:100D60006F8F0022C3F8842DBFF34F8FD3F8802DEF
:100D700043F6E074C2F3C900C2F34E32520102EAF4
:100D80000406014646EA8175C3F8605FBFF34F8FE2
:100D90000139F7D2203A12F1200FF0D1BFF34F8F73
:100DA000D3F8142D42F48032C3F8142DBFF34F8FC3
:100DB000BFF36F8FBFF34F8FBFF36F8F0022C3F866
:100DC000502FBFF34F8FBFF36F8FD3F8142D42F422
:100DD0000032C3F8142DBFF34F8FBFF36F8FF0BDF8
:100DE00000002640A06040203F00041000000000EA
:100DF00029000B071F0008030C0000000000500032
:100E00000000001023000B1619000B160000002034
:100E1000210008030060402001000B030D000000CA
:100E20000080402001000C1300C040200D00000095
:100E30002DC00413000060401300041335000B03A1
:100E40002700041370472DE9F047B64D01210446F1
:100E5000286001F0A7FC2B68002B40F03A81E67A6D
:100E6000B14FDFF8FC82DFF8FC92002E40F03881B1
:100E7000A67BAE4FDFF8F082DFF8E892002E40F05C
:100E80003F81A67AAA4FDFF8E482DFF8D892002EDD
:100E900040F07E81667AA74FDFF8D482DFF8C492F3
:100EA000002E40F086813746DFF8A082DFF8C4923A
:100EB000DFF8B0A2237ABB4200F28C810027DFF872
:100EC0007482DFF8AC92DFF89CA2637ABB4200F236
:100ED000938128680025022101F064FCE27BEBB2DB
:100EE0009A4200F29B81944B1D78002D38D101224B
:100EF000924F294628461A707B689847BB687A202B
:100F00008A4F98478E4B28461B6898478D4B28463A
:100F10001B689847874B28461B6898477B6828467C
:100F20009847BB68884F7A20984728463B6898477F
:100F300029467B687A209847844B7D4F28461B685A
:100F400098477B6828469847BB687A209847764B35
:100F500028465B6898477E4B294628461B68984779
:100F600001237C49E27C9A4200F262810025784F9D
:100F7000DFF80482DFF8EC91637CAB4200F25F8122
:100F80000025704FDFF8F481DFF8D891637BAB4226
:100F900000F2668100256A4FDFF8E481DFF8C49132
:100FA000237BAB4200F26C810025664FDFF8CC81D9
:100FB000DFF8B091637BAB4200F2728100255C4F99
:100FC000DFF8A881DFF89C91A37AAB4200F2798127
:100FD00000255A4FDFF88481DFF88891A37CAB426B
:100FE00000F281810025534FDFF88481DFF874918E
:100FF000637AAB4200F2898100254D4FDFF86C81A6
:10100000DFF86091A37AAB4200F291810025474F4F
:10101000DFF85481DFF84C91A37BAB4200F2998159
:10102000DFF8608101234C4F00257A210420BB703A
:10103000D8F800303D707D70FD70984701F0DEFB00
:10104000D8F800307A2105209847D8F800307A2166
:1010500006209847DFF8D09001F0CEFBDFF800A122
:10106000D8F800307A21DFF8208107209847E37A0A
:10107000AB4200F280813D78002D40F0B681324FC6
:10108000DFF80881DFF8DC90237CAB4200F28D8131
:101090002A4D324FDFF8CC80A37CB34200F2958119
:1010A00020460421BDE8F04701F07CBB1422E06B30
:1010B000724301368358104403EBC3034B445B78FF
:1010C00018F803301B01FB589847A37CB342EDD8B6
:1010D000C5E60026194FDFF88480DFF88890F4E732
:1010E000206A013E50F8363000EBC60003EBC30324
:1010F0004B445B7818F8033057F833309847B4E620
:10110000013EE06A0C223301C35800EB061003EBEA
:10111000C3034B445B7818F803305343FB5898479C
:10112000ACE600BFA4614020E06950004469500073
:10113000B069500008695000A861402090695000D3
:10114000E8685000F868500050695000606950002D
:10115000D869500028614020246140208C685000EC
:101160009E68500042645000B0685000A76850006C
:10117000CB685000C268500095685000D468500099
:10118000DD68500090604020D4615000B968500084
:10119000013E2822E069142172438358104403EB76
:1011A000C3034B445B7818F803304B43FB58984714
:1011B0006DE61421013EA06901FB06F2835810443C
:1011C00003EBC3034B445B7818F803304B43FB58E5
:1011D000984765E60C21606901FB07F201378358E7
:1011E000104403EBC30353445B7819F803304B43BB
:1011F00058F8033098475DE61421A06901FB07F217
:1012000001378358104403EBC30353445B7819F848
:10121000033001FB03835B68984756E6226B013578
:1012200002EBC30152F83300496800F014FC55E6A4
:10123000226C52F833208B540133DBB292E6142235
:10124000A06B29466A4301358358104403EBC3035E
:101250004B445B7818F8033057F8233098478BE6F7
:101260000C22A06A6A4301358358104403EBC30380
:101270004B445B7818F8033057F83330984785E6CD
:101280000C22606A6A4301358358104403EBC303A0
:101290004B445B7818F8033057F8233098477FE6C3
:1012A0000C22A06A6A4301358358104403EBC30340
:1012B0004B445B7818F8033007EBC3035B6898472F
:1012C00078E62822E06914216A43013583581044E6
:1012D00003EBC3034B445B7818F8033001FB037343
:1012E0005B68984770E61422E06B29466A43013533
:1012F0008358104403EBC3034B445B7818F8033066
:1013000007EB03135B68984768E61421A06901FBAB
:1013100005F201358358104403EBC3034B445B785B
:1013200018F8033001FB03739B68984760E6282296
:10133000E06914216A4301358358104403EBC30369
:101340004B445B7818F8033001FB0373DB68984764
:1013500058E6E06A2B010C22C35800EB051001355A
:1013600003EBC3034B445B7818F8033002FB0373B1
:101370005B68984750E6226A02EBC500436858F85C
:101380002330032B0ED052F83530194A03EBC30338
:1013900013445B781AF8033009EBC3035B68984782
:1013A000013564E601233B70FAE7606B50F8353095
:1013B00000EBC500013503EBC3034B445B7818F821
:1013C000033057F8333098475EE61422E06B7243DF
:1013D00001368358104403EBC30343445B78FB5C42
:1013E00005EB0313DB68984756E6BDE8F08700BFBE
:1013F000426450002DE9F0471F4F002502241F4E84
:10140000DFF88880B378AB421CD864BB1C4F2546FC
:10141000DFF87C80DFF87C90DFF868A0F3789D42ED
:1014200021D257F8040B0C2200EBC00353445B7825
:1014300019F8033002FB03839B689847012811D0F9
:101440000135EBE757F8040B0E4B00EBC0021344D9
:101450000D4A5B78D35C142202FB03839B68984798
:10146000012803D101242046BDE8F087022805F1B8
:10147000010508BF0024C5E7D06150002461402069
:10148000CC61500042645000A7685000B069500021
:1014900044695000B06850002DE9F0412F4D2B6891
:1014A0002BBBBDE8F0811B6A03EBC400426856F811
:1014B0002220032A0CD153F83430294A03EBC3030A
:1014C00013445B7818F8033007EBC3035B68984755
:1014D00001342B68DA7A9442E5D3224B1B78002B37
:1014E000DFD00024204E214FDFF8748013E0002469
:1014F0001F4E204FDFF88880EBE7586B50F83430F0
:1015000000EBC400013403EBC30343445B78FB5C92
:1015100056F8333098472B681A7C9442EDD3002458
:10152000154E164FDFF838802868837C9C4204D320
:101530000421BDE8F04101F035B91422C06B6243CB
:1015400001348358104403EBC30343445B78FB5CD2
:1015500006EB0313DB689847E6E700BFA461402071
:10156000426450002461402050695000B968500026
:10157000D4615000E0695000906950008C685000C0
:101580009E68500010B5FFF75EFC064B1C782CB12E
:10159000FFF730FF044618B9FFF77EFF204610BD65
:1015A0000124FBE724614020054A00EBC0031344FB
:1015B000044A5B78D25C044B03EB02139B68184728
:1015C000426450008C68500090695000014B1860D4
:1015D000704700BF90604020064A00EBC003012125
:1015E0001344054A5B78D25C044B03EBC2035B688F
:1015F000184700BF42645000B9685000506950005D
:10160000064A00EBC00300211344054A5B78D25C14
:10161000044B03EBC2035B68184700BF42645000F1
:10162000B96850005069500008B5044B0221186891
:1016300001F0B8F8BDE8084001F088B8A461402086
:1016400008B5044B0221186801F0ACF8BDE8084069
:1016500001F084B8A461402008B5044B0221186849
:1016600001F0A0F8BDE8084001F086B8A461402070
:1016700008B5044B0221186801F094F8BDE8084051
:1016800001F082B8A4614020014B1B68184700BFDD
:1016900090604020F8B5074600200E4614461D46CF
:1016A00001F068FB002138602846316001F069FBD9
:1016B0002060F8BD38B50C460021154601F05CFBF2
:1016C00023681844A842206034BF0020012038BDA0
:1016D000704710B5D0B14368C3B10268013B0C49F3
:1016E00002EBC2021B04885C8C180A4A03F47023C4
:1016F000617952F8302002EB8102D2F8801021F497
:1017000070210B4343F00043C2F8803010BD00BF8E
:10171000426450000463500098B10368094A03EB27
:10172000C303D25C084B53F8321043688A68012B1C
:1017300022F0FC4238BF01235B0603F0FC43134355
:101740008B6070474264500004635000F0B5064659
:1017500085B000283FD002681425224802EBC2025F
:1017600073688118805C0A794C7905FB00221E4859
:1017700050F8225073B18F7805EB84001B49013B70
:10178000826801EB0711CF688968BB4053400B406A
:10179000534083604CF2503303AA02A901A8FFF71B
:1017A00079FFEF6B02A9039A01A8FFF783FFFB07FC
:1017B00006D50028F5D031680120FFF765FF0AE063
:1017C0000028F8D124B2736805EB84042BB1A36818
:1017D00043F00043A36005B0F0BDA36823F00043CD
:1017E000F8E700BF4264500020635000AC5F500037
:1017F000704780B103680A4A03EBC303D118D25C77
:101800000B79142101FB0233064A52F82330426857
:1018100012B101225A6370475A6B22F00102F9E7B4
:1018200042645000206350007FB5044640B34368D3
:1018300033B3036801A8134A03EBC303D118D25C86
:101840000B79142101FB02330F4A02A952F82350ED
:10185000012303AAAB634CF25033FFF71BFFEE6B7F
:1018600002A9039A01A8FFF725FFF30706D5002870
:10187000F5D021680120FFF707FF01E00028F8D12B
:1018800004B070BD42645000206350007047704740
:1018900058B10368054A03EBC303D25C044B53F809
:1018A0002220136823F00103136070474264500044
:1018B00014635000E0B10389D3B103680D4A03EB10
:1018C000C303D25C0C4B53F822104389427B1B04A8
:1018D000120603F47F0302F080721343027B43EA93
:1018E000C273827B1201D2B2134343F001030B6037
:1018F000704700BF4264500014635000054B00EB7A
:10190000C0001A5C044B53F82220136823F0010333
:1019100013607047426450001463500070B1038933
:10192000012B0BD10368064A03EBC303D25C054BC2
:1019300053F82220136843F001031360704700BF7F
:101940004264500014635000A2E780B1038973B170
:101950000368074A03EBC303D25C064B53F822200B
:1019600043891B0403F47F0343F0010313607047B2
:1019700042645000146350007FB5044618B30389D5
:101980000BB3037B016803BB01EBC101124B03AA3C
:1019900001A85D5C4CF2503302A9FFF77BFE0F4BB0
:1019A00053F825506E6802A9039A01A8FFF782FE3A
:1019B000002E06DB0028F5D021680120FFF764FE29
:1019C00001E00028F8D104B070BD022004B0BDE8E9
:1019D0007040FFF759BE00BF4264500014635000CE
:1019E0007FB5044628B303891BB3437B0BB3037B4A
:1019F000016803BB01EBC101124B03AA01A85D5CA6
:101A00004CF2503302A9FFF745FE0F4B53F8255017
:101A10006E6802A9039A01A8FFF74CFE002E06DBB0
:101A20000028F5D021680120FFF72EFE01E00028F4
:101A3000F8D104B070BD022004B0BDE87040FFF7DB
:101A400023BE00BF426450001463500070477047CB
:101A50007047002070477047704770472DE9FF417D
:101A60000446002873D003683A4A03EBC303818815
:101A70001344394A9B7912F8336002EBC302374BA7
:101A80005778556853F82630002930D053F827107E
:101A900029425CD153F82710DFF8C880294343F866
:101AA00027102F4B53F826301A6842F001021A60B3
:101AB0005A6842F001025A6000F03EFD4CF2503389
:101AC00003AA02A901A8FFF7E5FD039A02A901A84C
:101AD000FFF7F0FD58F8263053F827302B4234D169
:101AE0000028F2D021680120FFF7CEFD2FE053F847
:101AF000271029422BD053F82710DFF8688021EAFD
:101B0000050143F82710164B53F826301A6842F0A7
:101B100001021A605A6842F001025A6000F00CFD9E
:101B20004CF2503303AA02A901A8FFF7B3FD039AB0
:101B300002A901A8FFF7BEFD58F8263053F8273058
:101B40002B4202D00028F2D0CCE70028CAD104B042
:101B5000BDE8F08142645000D45850004C625000FF
:101B60002C6250003C62500007B581F001010090EA
:101B70006846ADF80410FFF771FF03B05DF804FB91
:101B800070477047024A936843F0010393607047BF
:101B900000002D40024A936823F0010393607047D0
:101BA00000002D40024AD36843F48073D36070472D
:101BB00000802C40024AD36823F48073D3607047BE
:101BC00000802C40F0B5044685B000282BD0C379A6
:101BD000013BDBB2022B26D8174A526E520F052A60
:101BE00023D1164A02A9164E01A8D55C4CF25033F7
:101BF00003AAFFF74FFDD6F8887102A9039A01A83E
:101C0000FFF758FD002F06DB0028F4D021680120E3
:101C1000FFF73AFD07E00028F8D1074A536E23F09A
:101C200003031D43556605B0F0BD01680A2005B0E9
:101C3000BDE8F040FFF728BD00C03940384B5000E8
:101C400000C02D4030B18288054B22B19A6842F025
:101C500001029A6070479A6822F00102F9E700BF1A
:101C600000002D4030B18288054B22B1DA6842F481
:101C70008072DA607047DA6822F48072F9E700BF98
:101C800000802C4000F0E0B8704770477047F0B516
:101C9000002869D00268354B02EBC204344E23445D
:101CA0001B7A06EB0316D0E9025300796A40F46808
:101CB0005A4042402F4850F82170974253D040F884
:101CC00021202D4A2D481268116C7268825C01EB4C
:101CD000C2025268B2F57A7F45D3B668805D01EBE7
:101CE000C0014968B1F57A7F3DD3B3F57A7F3AD325
:101CF0004FF47A7640F2C737B2FBF6F2B1FBF6F159
:101D0000B3FBF6F302EB420057430A26B0FBF1F0B7
:101D100002EB82010130B1FBF3F10931884238BF97
:101D2000084640F2F3314343704359436060B1FBCE
:101D3000F7FC07FB1C117143B1FBF7F140F2DD37F3
:101D400006FB0C117B4340F2094704317A43A16042
:101D5000B3FBF2F702FB17337343B3FBF2F306FB5B
:101D60000733033BE3606561F0BD00BF4264500090
:101D70005C625000AC614020A4614020286140209A
:101D800078B10368094A03EBC303017913441A7A53
:101D9000074B03EB0213DA68136819B143F0010330
:101DA0001360704723F00103FAE700BF426450005C
:101DB0005C6250007FB500EBC0021A4B054613442D
:101DC0001A7A194B03EB0213DC6801F09BFD2368C0
:101DD000DA071BD54CF2503303AA02A901A8FFF77A
:101DE00059FC266902A9039A01A8FFF763FCF306D0
:101DF00006D40028F5D029460120FFF745FC01E074
:101E00000028F8D1236823F001032360636923F0DD
:101E10000F036361236943F00303236101F08CFD29
:101E200004B070BD426450005C62500008B10068AC
:101E3000C0E77047034B53F82030186900F00300E7
:101E4000704700BFE8625000F8B50D4D00240D4EFC
:101E50000D4F55F8042B3168136903F0030361B18A
:101E600051690B4005D057F8241000201361FFF78B
:101E70000BFC0134072CECD1F8BD1361F9E700BF6E
:101E8000E8625000A4614020CC62500070470220FC
:101E90007047704710B590B103680E4A03EBC30357
:101EA000D25C0D4B03EBC20153F8322000230C79B6
:101EB000D9B28C4204D8136843F00043136010BDBC
:101EC00002EB83000133D0F8801021F00041C0F80C
:101ED0008010EDE7426450000463500010B5002804
:101EE00044D08388002B41D00368214A03EBC3030D
:101EF000047DD25C1F4B53F83220437B91681B0357
:101F000021F4E14103F4E04321F07F012343448ABB
:101F10000B431949C4F30E04936013691940037FFE
:101F20009B0703F0804323430B431361447D837D70
:101F3000A107002C4FEA437301F0804103F00053E6
:101F400043EA0103418B008BC1F30A0143EA010319
:101F50000A4901EA004143EA0103D3600CBF802330
:101F600000239361136823F00043136010BD00BF8A
:101F700042645000046350000080FFBF0000FF0374
:101F800070B18388012B0BD10368064A03EBC303AE
:101F9000D25C054B53F83220136823F000431360E2
:101FA000704700BF42645000046350007FB500EBEF
:101FB000C003134A0446D25C124B53F832502B68CC
:101FC000002B1BDB4CF2503303AA02A901A8FFF738
:101FD00061FB6E6802A9039A01A8FFF76BFB730708
:101FE00008D40028F5D001202146FFF74DFB012041
:101FF00004B070BD0028F6D10220F9E70020F7E711
:1020000042645000046350007047F0B500287FD050
:10201000C468026806694A4FD0E901C584EA020033
:10202000704080EA0C0080EA050357F821009842CE
:102030006ED047F8213002EBC202424B04EBC404DD
:1020400041481B68414902441B6C497810F804E080
:1020500003EBC103D0793E4A5F6805FB0CF340F601
:10206000381C3C4CB6FBF2F6B7FBF2F73A4A0CFBD5
:1020700006FC54F82E405343B3FBFCF2642A48D8C4
:10208000634534BF11460C21052A08D90A2A54D9C0
:102090000F2A50D9142A8CBF4FF47A71B8214FF40B
:1020A000FA1307FB01FC03FB06F2B3FBF1F3B2FBEF
:1020B000FCF2D21A4FF0804C02F5807294452BD876
:1020C0000023BCF1000F2AD19B007D43BF33ADB28A
:1020D000DA09256000EB400502FB01F3C9B204EB0D
:1020E000850541EA034102FB03330C2269604FF48A
:1020F0007A715B0802FB00404E4303F2E733B6FB04
:10210000F7F7013FC3F31303C7F31307AF60C360CF
:10211000F0BD4FF47A71C2E74FEA9C0CCEE70CEBAE
:10212000030E96459CBF03EB4C03A2EB0E024FEA55
:102130009C0C5B08C5E77021B1E73021AFE700BF19
:10214000BC614020A46140204264500028614020CE
:1021500040420F001C635000A0860100704710B57C
:10216000C0B103680C4803EBC3030C4CC1188A7858
:102170001201A458C25C0B79142101FB0233084AF6
:1021800052F82330196841F0080119601A6822EAF0
:1021900004021A6010BD00BF42645000AC5F5000E2
:1021A00020635000DBE72DE9FF41044600286ED094
:1021B000384A394ED0E90031384803EBC30332F8CE
:1021C0001150C1188A78170106EB0212F759D2F89C
:1021D0000480C25C0B79142101FB0233304A52F8AF
:1021E000236073683B4023FA08F3AB424FD04CF2B4
:1021F000503303AA02A901A8FFF74CFA02A9039AD7
:1022000001A8FFF757FA7368D90304D50028F5D061
:102210002168012039E00028FAD1336805FA08F571
:1022200003AA02A95D4001A83D405D404CF2503335
:1022300045F007053560FFF72DFA039A02A901A8BA
:10224000FFF738FA73685A0702D40028F5D0DFE7A1
:102250000028DDD14CF2503303AA02A901A8FFF7F0
:1022600019FA039A02A901A8FFF724FA7368DB039D
:1022700002D50028F5D0CBE70028C9D17368C3F395
:102280004243012B03D021680320FFF7FDF904B07E
:10229000BDE8F0819C635000AC5F50004264500088
:1022A000206350002DE9FF41044600286ED0394AD2
:1022B000394ED0E90031394803EBC30332F81150ED
:1022C000C1188A78170106EB0212F759D2F8048078
:1022D000C25C0B79142101FB0233314A52F82360AE
:1022E00073683B4023FA08F3AB424FD04CF25033B3
:1022F00003AA02A901A8FFF7CDF902A9039A01A830
:10230000FFF7D8F97368D90304D50028F5D0216800
:10231000012039E00028FAD1336805FA08F503AA4C
:1023200002A95D4001A83D405D404CF2503345F0AC
:1023300004053560FFF7AEF9039A02A901A8FFF77B
:10234000B9F973685A0702D40028F5D0DFE70028EE
:10235000DDD14CF2503303AA02A901A8FFF79AF984
:10236000039A02A901A8FFF7A5F97368DB0302D558
:102370000028F5D0CBE70028C9D17368C3F34243E6
:10238000012B03D021680320FFF77EF904B0BDE8DC
:10239000F08100BF9C635000AC5F5000426450006D
:1023A000206350002DE9FF410546002855D02C4AF6
:1023B0002C4CD0E900312C4803EBC30332F81160F8
:1023C000C1188A78170104EB0212E759D2F8048089
:1023D000C25C01A80B79142101FB0233234A02A934
:1023E00052F8234003AA236843F00C0323604CF205
:1023F0005033FFF74FF9039A02A901A8FFF75AF9E2
:1024000063689A0304D50028F5D0296801201FE0ED
:102410000028FAD1236806FA08F603AA02A95E404A
:1024200001A83E405E402660236823F00C03236031
:102430004CF25033FFF72EF9039A02A901A8FFF7D7
:1024400039F963689B0306D40028F5D02968032076
:10245000FFF71AF901E00028F8D104B0BDE8F081D7
:102460009C635000AC5F50004264500020635000F9
:102470002DE9FF41064600283DD003681F4A204849
:10248000D55C03EBC3031F4CC1188A78170104EB1A
:102490000212E759D2F80480C25C01A80B7914211A
:1024A00001FB0233184A02A952F8234003AA236809
:1024B00043F00C0323604CF25033FFF7EBF8039A20
:1024C00002A901A8FFF7F6F863689B0306D5002868
:1024D000F5D031680120FFF7D7F80CE00028F8D1DB
:1024E000236805FA08F55D403D405D40256023689E
:1024F00023F00C03236004B0BDE8F081C8635000F2
:1025000042645000AC5F5000206350004068064BAE
:10251000064933F810304A681B0322F4405203F492
:10252000405313434B607047706350000080284055
:1025300008B1FFF7EBBF7047034B45F6F0221A6076
:102540004AF20F521A60704700C02D401FB57E4CF2
:10255000D4F81433DA012CD4D4F8343302A901A806
:1025600043F08073C4F83433D4F8003343F00103EC
:10257000C4F80033D4F8043343F00103C4F804333F
:10258000FFF7DAFF4CF2503303AAFFF783F8039A00
:1025900002A901A8FFF78EF8D4F81433DB0106D4A2
:1025A0000028F4D007210120FFF76EF801E0002891
:1025B000F8D1654CD4F8143398022CD4D4F83433C1
:1025C00002A901A843F40013C4F83433D4F800334B
:1025D00043F00103C4F80033D4F8043343F001039B
:1025E000C4F80433FFF7A8FF4CF2503303AAFFF7F7
:1025F00051F802A9039A01A8FFF75CF8D4F8143344
:10260000990206D40028F4D005210120FFF73CF8F8
:1026100001E00028F8D14C4CD4F814331A032CD420
:10262000D4F8343302A901A843F40023C4F83433A6
:10263000D4F8003343F00103C4F80033D4F8043372
:1026400043F00103C4F80433FFF776FF4CF2503334
:1026500003AAFFF71FF8039A02A901A8FFF72AF8B7
:10266000D4F814331B0306D40028F4D0062101202B
:10267000FFF70AF801E00028F8D1334CD4F81433FE
:1026800018042CD4D4F8343302A901A843F400432D
:10269000C4F83433D4F8003343F00103C4F80033F2
:1026A000D4F8043343F00103C4F80433FFF744FFC4
:1026B0004CF2503303AAFEF7EDFF02A9039A01A8DA
:1026C000FEF7F8FFD4F81433190406D40028F4D028
:1026D0007A210120FEF7D8FF01E00028F8D11A4C3A
:1026E000D4F81033DA012CD4D4F8303302A901A87D
:1026F00043F08073C4F83033D4F8003343F001035F
:10270000C4F80033D4F8043343F00103C4F80433AD
:10271000FFF712FF4CF2503303AAFEF7BBFF039AF8
:1027200002A901A8FEF7C6FFD4F81033DB0106D4D6
:102730000028F4D07A210120FEF7A6FF01E000284E
:10274000F8D104B010BD00BF00C02D40024B0120E5
:102750001B689B68184700BFC46140201FB5012358
:1027600001A8ADF80830034B1B685B68984705B0BB
:102770005DF804FBC4614020024B03201B689B688A
:10278000184700BFC86140201FB5012301A8ADF85C
:102790000830034B1B685B68984705B05DF804FB85
:1027A000C8614020012917D0022917D10C4B1A7893
:1027B000A2B901220B490C481A70CB780B4A03EBE3
:1027C000430302EB830303608B7803EB430302EBC9
:1027D0008302074B1A607047FFF7B8BE704700BF0F
:1027E000C0614020C2685000C8614020606950004C
:1027F000C461402002F09CB9FFF7FCBF02F076B93B
:102800007047F8B51C4607460E461546FDF7E6FE2E
:10281000054B23F81070054B1E54054B1D54054BFA
:102820001C540020F8BD00BF3C814020488140205E
:102830001881402020814020F8B51C4607460E46EE
:102840001546FDF7CBFE054B23F81070044B1E54C4
:10285000044B1D54044B1C540020F8BD288140201B
:10286000348140203881402044814020F8B51C4606
:1028700007460E461546FDF7B1FE054B23F81070CE
:10288000044B1E54044B1D54044B1C540020F8BD33
:10289000108140201C814020248140203081402034
:1028A000704700BF2DE9F843DFF8549080460F468B
:1028B0001D461646FDF792FE39F810300446DFF843
:1028C00044E04345DFF840C00C4915D11EF8003004
:1028D000BB4211D11CF80030B3420DD10A5C531B2E
:1028E00058425841002329F814300EF804300CF8EF
:1028F00004300B55BDE8F8830020F3E72081402029
:102900003C81402048814020188140202DE9F84337
:10291000DFF8549080460F461D461646FDF75EFED2
:1029200039F810300446DFF844E04345DFF840C092
:102930000C4915D11EF80030BB4211D11CF80030F3
:10294000B3420DD10A5C531B58425841002329F869
:1029500014300EF804300CF804300B55BDE8F88341
:102960000020F3E74481402028814020348140202A
:10297000388140202DE9F843DFF8549080460F4617
:102980001D461646FDF72AFE39F810300446DFF8DA
:1029900044E04345DFF840C00C4915D11EF8003033
:1029A000BB4211D11CF80030B3420DD10A5C531B5D
:1029B00058425841002329F814300EF804300CF81E
:1029C00004300B55BDE8F8830020F3E73081402048
:1029D000108140201C8140202481402070B50E4E83
:1029E000FDF7FCFD0D4D36F810300D4C0D4983B947
:1029F0002B5C73B9235C63B90B5C003B18BF0123EC
:102A0000002226F810202A5422540A5483F0010090
:102A100070BD0123F4E700BF3C8140204881402085
:102A2000188140202081402070B50E4EFDF7D6FD64
:102A30000D4D36F810300D4C0D4983B92B5C73B930
:102A4000235C63B90B5C003B18BF0123002226F80E
:102A500010202A5422540A5483F0010070BD01232F
:102A6000F4E700BF28814020348140203881402095
:102A70004481402070B50E4EFDF7B0FD0D4D36F887
:102A800010300D4C0D4983B92B5C73B9235C63B9CD
:102A90000B5C003B18BF0123002226F810202A54AB
:102AA00022540A5483F0010070BD0123F4E700BFF3
:102AB000108140201C814020248140203081402012
:102AC00000F00AB800F024B800F03CB800F054B8A8
:102AD00000F06CB800F09EB8C0F30713094AD35C4D
:102AE000094AD25CA0EB0210084A80F0030052F8B9
:102AF000233013FA80F000F5A850007800F00100B0
:102B0000704700BFD96C5000D86C500098604020CE
:102B1000C0F30713084AD35C084AD25CA0EB02104A
:102B2000074A80F0030052F8233013FA80F000F5D2
:102B300098500170704700BFD96C5000D86C50009D
:102B400098604020094B0A491A5C0A4B9B5CC01AEA
:102B500020F0010300F001001B1A51F8220000EBE5
:102B6000430000F5B850023001F004BDD96C5000AC
:102B700098604020D86C5000094B1A5C094B9B5C54
:102B8000C01A20F0010300F001001B1A064850F89B
:102B9000220000EB430000F5B850023001F0C1BC48
:102BA000D96C5000D86C50009860402038B5164A57
:102BB000044603781549D25C885C15491B1A23F03A
:102BC000010003F00103C31A51F8220000EB430097
:102BD00000F5B850023001F0CDFC628803460F20AA
:102BE000510839B98240607813409BB243FA00F033
:102BF00080B238BD01F001050138490845EA4202BA
:102C000080B292B2EDE700BFD96C5000D86C500092
:102C10009860402070B403460C4A06780F24905DFB
:102C20005A785B8801FA02F25D0892B22DB9A3408E
:102C300031469BB270BC01F0AEBC05F00101013C15
:102C40006D0841EA4303A4B29BB2EFE7D96C500090
:102C5000104B8268104970B41860142400239A4203
:102C600009D1C26800230D4944249A420AD18069DF
:102C700070BC00F054B804FB03F5066975594B5558
:102C80000133ECE704FB03F5466975594B550133F5
:102C9000EBE700BFD0614020D4614020CC614020F0
:102CA0000120704708B5064A064B105C1B6800EB14
:102CB00000105B6903EB800000F03EF8002008BDC7
:102CC000CC614020D0614020084B10B51C5C00F066
:102CD000E7FD074B04EB84041B68186900EB8400D4
:102CE00000F036F8BDE8104000F0F4BDD46140209B
:102CF000D061402008B500F021F8002008BD00F0A8
:102D00001FB800F027B800F027B800F027B800F08F
:102D100027B8704710B90846FFF7FBBF704710B5DA
:102D200004460448FEF752FC2046BDE8104000F07F
:102D300057B900BF152D5000FEF785B8FEF7ACBBA4
:102D400008B5FEF757FB10B1012818BF022008BDD7
:102D500000F000B900F034B900F040B9FEF724BC2F
:102D600008B900F051B900F04DB900BF08B100BE7C
:102D7000FDE7704700207047B1FA81F040097047C5
:102D80007047002918BF002070474FF0E023002251
:102D90006FF07F411A6159619A6105221A6170478B
:102DA0004FF0E023986920F07F4070474FF0E0211A
:102DB00003688A6922F07F42934205D24969891AE1
:102DC0000B440260184670479B1AFAE7024610B59A
:102DD00038B10C23002211467C20BDE81040FFF7DB
:102DE00010BD064CE3691B78012B01D0F023F2E7FC
:102DF0002046FDF7FBFB024B1C6010BDB450500099
:102E00004C8140200A4B10B51C683CB90F230122AD
:102E100000217C20BDE81040FFF7F3BC2246FDF7FF
:102E20002DFC0128024601D10B23F1E710BD00BFA4
:102E30004C814020094B10B51C683CB90F2304227B
:102E400000217C20BDE81040FFF7DBBC2246FDF7E7
:102E500067FC0D280346F2D010BD00BF4C81402016
:102E6000094B196821B90F2302227C20FFF7C9BC46
:102E7000CB691B78012B03D0F02302220021F4E759
:102E80000846FDF753BD00BF4C814020014620B9E4
:102E9000102303227C20FFF7B4BC2B2303807C2368
:102EA000438003238380002383717047F8B50C4669
:102EB0000646174600F08AFDC4F303150A230C4AA0
:102EC00004F00F0403FB065332F813100123A34050
:102ED0009BB24FB10B430A2000FB065522F8153078
:102EE000BDE8F84000F08CBD21EA0303F3E700BF22
:102EF00050814020182358430B69191810B54A7A9D
:102F0000022A0AD00C7A1B5A044983F0030351F8B1
:102F100024100B4403F598531A7010BD3C4B50001D
:102F200010B50446006900F095F823691A7B22B1B8
:102F30001B7813B1002000F0A5F800F0B1F818B923
:102F4000BDE8104000F098BB07210120BDE810400B
:102F500000F0AABB38B504464568C06800F0B0F977
:102F6000E06800F0E8F8E06800F0BFF9012D04D84F
:102F70002846BDE8384000F0CDB90D2D04D12046DB
:102F8000BDE8384000F0D4B90E2D01D0112D03D189
:102F90002046BDE83840C3E70F2D01D0122D04D1E3
:102FA0002046BDE8384000F0CEB9102D01D0132DD9
:102FB00003D12046FFF7B4FFF2E738BD00F0DCB9DB
:102FC00008B500F0F3FA38B900F0D6F90F2803D0AD
:102FD000BDE8084000F03ABA1C2008BD00F08EBAE7
:102FE00010B50446006800F019FA606800F0F0FAC5
:102FF0000120BDE8104000F045B8014B1860704753
:103000009460402000F00BB800F000B84FF0E022D0
:10301000D2F8103D23F00203C2F8103D70474FF084
:10302000E022D2F8103D43F00203C2F8103D704791
:103030004FF0E022D2F8103D23F00403C2F8103D17
:1030400070474FF0E022D2F8103D43F00403C2F87D
:10305000103D704703788BB14378094A012B0ABFB2
:103060004368002343F00103C2F81036D2F8043657
:10307000816823F078030B43C2F80436704700BF21
:1030800000C02A40054A0004D2F8003600F480301F
:1030900023F480331843C2F80006704700C02A406A
:1030A000024B186800F00100704700BF00C02E40BE
:1030B000034B45F6F0221A604AF20F521A6070472D
:1030C00000C02D408368DA0730B585B031D58478EB
:1030D00002A9456801A8640205F0010304F18044D7
:1030E00004F53714D4F8002122F001021343C4F888
:1030F0000031D4F8043143F00103C4F80431FFF780
:10310000D7FF4CF2503303AA00F0D5FA039A02A974
:1031100001A800F0E0FAD4F808316B40DB0706D5CF
:103120000028F3D0FF21002000F0BEFA01E00028C3
:10313000F8D105B030BD2DE9F04F002687B00090E2
:10314000009B5D681C237343EF18EB5C002B7FD161
:103150000136032EF4D107B0BDE8F08F39690AFBC0
:1031600003F3CA18CB5C93B3BB7804A9547803A8C3
:1031700004EBC314A400D2E9019B04F180444F4A3C
:1031800004F5371402EB4323C4F83091D3F804213B
:1031900042F00102C3F80421FFF78AFF4CF25033DA
:1031A00005AA00F088FA059A04A903A800F093FA8A
:1031B000D4F810310BEA0303994506D00028F2D069
:1031C000FF21002000F070FA01E00028F8D108F19A
:1031D00001083A7B5FFA88F39A42BFD81C234FF06C
:1031E00000084FF00C0B03FB06552A7D5FFA88F3AD
:1031F0009A42ADD9A9690BFB03F3CA18CB5C23B380
:10320000D2F8089097F802A019F0010F547826D14F
:103210004CF2503305AA04A903A800F04CFA274A3F
:1032200004EB0A1302EB4313059A04A903A80193C4
:1032300000F051FA019BD3F84821002A0DDB002849
:10324000F2D0FF21002000F02FFA08F10108CCE7AE
:103250004FF000084FF00C0ABBE70028F1D104EB57
:103260000A1304A903A804EB0A145B0103F18043C9
:1032700003F53713C3F84091D3F8442142F001021B
:10328000C3F84421FFF714FF4CF2503305AA00F0B5
:1032900012FA0A4B03EB4414059A04A903A800F0A0
:1032A0001AFAD4F8483189EA0303DB0702D500286B
:1032B000F2D0C6E70028C8D0C3E700BF00C02D4049
:1032C00070B5054600241C2606FB04F36A68D01876
:1032D000D35C33B1437823B14368DB0701D5FFF7F3
:1032E000F1FE0134032CEFD170BD70B5054600240A
:1032F0001C2606FB04F36A68D018D35C33B143780C
:1033000023B14368DB0701D4FFF7DCFE0134032C53
:10331000EFD170BD054B20B901225A6001229A609D
:10332000C6E60128FAD10222F7E700BF00C02D400F
:1033300008B5BFF34F8F037A0BB1FFF770FE30BFB4
:10334000BFF34F8F08BD08B5C3681A68094B1A61EF
:10335000BFF34F8F4FF400425A6001229A60FFF78B
:10336000A7FEBFF34F8F037A0BB1FFF758FE30BFB4
:1033700008BD00BF00C02D40034BDB6813F0010FF8
:1033800014BF0F200220704700C02D407FB50446B7
:10339000D0B10E4D4CF250330D4E03AA02A901A834
:1033A00000F089F9039A02A901A800F094F9AC6031
:1033B000AC68344006D00028F4D0FF21002000F093
:1033C00073F901E00028F8D104B070BD00C02840B6
:1033D000D90211607FB50F4D04460F4E4CF25033A9
:1033E00003AA02A901A800F066F9039A02A901A89C
:1033F00000F071F92C602C68344006D00028F4D01D
:10340000FF21002000F050F901E00028F8D104B0BD
:1034100070BD00BF00C0284059D7066038B5094CC0
:103420000546A06818B1084B1860FFF7AFFF2B687E
:10343000E36023682BB16A68DB07A26101D5AB6842
:10344000E36138BD00C02840DC614020F8B5244B62
:1034500024481B681840244B00B1186000241E68E3
:103460001D25012722462346DFF888C007FA03F10D
:1034700011EA0C0F05D00E4202D062BB2546012294
:1034800001340133202BF1D108B1FFF7A3FFF6B9C6
:10349000134B16489B681840154B00B118601A680A
:1034A0009AB100231D250127DFF84CC007FA03F16C
:1034B00011EA0C0F06D00A4203D0012E09D025468E
:1034C000012601340133202BF0D1FFF75FFF28469E
:1034D000F8BD1E25F9E71E250028F8D0D5E700BF66
:1034E00000C0284059D70660E0614020D902116031
:1034F000DC61402059D70760D9171160F8B5244B1B
:1035000024489B681840244B00B118601C68B4B173
:1035100000230121214F1A461D4601FA02F63E42C0
:1035200007D0344218BF01FA03F603F1010318BFB4
:1035300035430132202AF0D12C46FFF727FF144BE8
:1035400017481B681840174B00B118601968A9B1DB
:103550000F2200230125144F05FA03F63E4207D03F
:10356000314218BF05FA02F602F1010218BF3443D6
:103570000133202BF0D108B1FFF72CFF2CB9FFF756
:10358000FBFE0F2808BF4FF400542046F8BD00BFD3
:1035900000C02840D9021160DC614020D9171160B9
:1035A00059D70660E061402059D707600649074AAD
:1035B0004B6A13F0030301D013604B62106810F0E4
:1035C000030018BF0120704700C02840D861402088
:1035D0001FB5264B264A19688A4301D1254A1A602D
:1035E0000268D40728D522F00101900759601ED542
:1035F0001E4C4CF2503303AA02A901A800F05BF85C
:1036000002A9039A01A800F066F82368990406D578
:103610000028F5D0FF21002000F046F805E0002842
:10362000F8D1636843F00103636004B010BD5A68C9
:1036300042F001025A60F8E75A60D203F5D50B4C0C
:103640004CF2503303AA02A901A800F034F8039AFF
:1036500002A901A800F03FF863689B0302D4002888
:10366000F5D0D7E70028E0D0D4E700BF00802E4097
:103670000000FF803F00FF830A4B5A6822F440722B
:103680005A605A68D10702D45A68D20309D55A68D9
:103690005521022022F4803222F003025A6000F009
:1036A00003B8704700802E40014B1B68184700BFCD
:1036B000946040207047F8B5074600200E46144637
:1036C0001D46FFF757FB0021386028463160FFF7A1
:1036D00058FB2060F8BD38B50C4600211546FFF7B1
:1036E0004BFB23681844A842206034BF002001200F
:1036F00038BD00BF836900228168B1FBF3F1134636
:10370000F0B58A4225D00BB11846F0BD8469013C62
:10371000072C1CD8DFE804F004091B0E1B1B1B132D
:1037200044680569A5540132EBE74468056924F84B
:103730001250F8E74468056944F82250F3E74468FA
:10374000D0E9046704EBC204C4E90067EBE7012396
:10375000E9E7002BD8D11E4606E04368027C9B5D5A
:10376000D31A18BF012301368E42CDD0002BCBD106
:103770008369013B072B2CD801A252F823F000BF2C
:103780005B375000A1375000D3375000AB375000A3
:10379000D3375000D3375000D3375000B5375000DF
:1037A0004368028A33F81630DAE74368026953F84F
:1037B0002630D5E7436803EBC60253F83650546809
:1037C000D0E90432944208BF9D4214BF0123002374
:1037D000C9E70123C7E700BF08B5FCF7FFFE094BA7
:1037E00053F820203AB9EFF31082D10700D472B613
:1037F000054941F8202053F82020013243F82020C9
:1038000008BD00BF848140209481402008B5FCF7AA
:10381000E5FE084B53F82020013A43F82020064AE1
:1038200052F82020D20703D453F8203003B962B6EF
:1038300008BD00BF848140209481402008B5FCF77A
:10384000CDFE094B53F820203AB9EFF31082D1078F
:1038500000D472B6054941F8202053F820200132E7
:1038600043F8202008BD00BF6481402074814020BF
:1038700008B5FCF7B3FE084B53F82020013A43F893
:103880002020064A52F82020D20703D453F82030D3
:1038900003B962B608BD00BF648140207481402036
:1038A00008B5FCF79BFE094B53F820203AB9EFF31B
:1038B0001082D10700D472B6054941F8202053F890
:1038C0002020013243F8202008BD00BFE4814020C1
:1038D000F481402008B5FCF781FE084B53F8202006
:1038E000013A43F82020064A52F82020D20703D498
:1038F00053F8203003B962B608BD00BFE481402010
:10390000F481402008B5FCF769FE094B53F82020EC
:103910003AB9EFF31082D10700D472B6054941F8E5
:10392000202053F82020013243F8202008BD00BF9A
:10393000A4814020B481402008B5FCF74FFE084B1D
:1039400053F82020013A43F82020064A52F820205C
:10395000D20703D453F8203003B962B608BD00BFC4
:10396000A4814020B481402008B5FCF737FE094B04
:1039700053F820203AB9EFF31082D10700D472B681
:10398000054941F8202053F82020013243F8202037
:1039900008BD00BFC4814020D481402008B5FCF799
:1039A0001DFE084B53F82020013A43F82020064A18
:1039B00052F82020D20703D453F8203003B962B65E
:1039C00008BD00BFC4814020D481402008B5FCF769
:1039D00005FE094B53F820203AB9EFF31082D107C6
:1039E00000D472B6054941F8202053F82020013256
:1039F00043F8202008BD00BFD48440201484402018
:103A000008B5FCF7EBFD084B53F82020013A43F8CA
:103A10002020064A52F82020D20703D453F8203041
:103A200003B962B608BD00BFD4844020148440208E
:103A300008B5FCF7D3FD094B53F820203AB9EFF352
:103A40001082D10700D472B6054941F8202053F8FE
:103A50002020013243F8202008BD00BF44824020CE
:103A6000D482402008B5FCF7B9FD084B53F820205C
:103A7000013A43F82020064A52F82020D20703D406
:103A800053F8203003B962B608BD00BF448240201D
:103A9000D482402008B5FCF7A1FD094B53F8202043
:103AA0003AB9EFF31082D10700D472B6054941F854
:103AB000202053F82020013243F8202008BD00BF09
:103AC000A4844020F482402008B5FCF787FD084B11
:103AD00053F82020013A43F82020064A52F82020CB
:103AE000D20703D453F8203003B962B608BD00BF33
:103AF000A4844020F482402008B5FCF76FFD094BF8
:103B000053F820203AB9EFF31082D10700D472B6EF
:103B1000054941F8202053F82020013243F82020A5
:103B200008BD00BF64844020E484402008B5FCF751
:103B300055FD084B53F82020013A43F82020064A4F
:103B400052F82020D20703D453F8203003B962B6CC
:103B500008BD00BF64844020E484402008B5FCF721
:103B60003DFD094B53F820203AB9EFF31082D107FD
:103B700000D472B6054941F8202053F820200132C4
:103B800043F8202008BD00BF5485402054824020C7
:103B900008B5FCF723FD084B53F82020013A43F801
:103BA0002020064A52F82020D20703D453F82030B0
:103BB00003B962B608BD00BF54854020548240203E
:103BC00008B5FCF70BFD094B53F820203AB9EFF389
:103BD0001082D10700D472B6054941F8202053F86D
:103BE0002020013243F8202008BD00BF348440204B
:103BF0008482402008B5FCF7F1FC084B53F82020E4
:103C0000013A43F82020064A52F82020D20703D474
:103C100053F8203003B962B608BD00BF3484402099
:103C20008482402008B5FCF7D9FC094B53F82020CA
:103C30003AB9EFF31082D10700D472B6054941F8C2
:103C4000202053F82020013243F8202008BD00BF77
:103C5000E48340207484402008B5FCF7BFFC084B87
:103C600053F82020013A43F82020064A52F8202039
:103C7000D20703D453F8203003B962B608BD00BFA1
:103C8000E48340207484402008B5FCF7A7FC094B6E
:103C900053F820203AB9EFF31082D10700D472B65E
:103CA000054941F8202053F82020013243F8202014
:103CB00008BD00BFB48240206485402008B5FCF7F1
:103CC0008DFC084B53F82020013A43F82020064A87
:103CD00052F82020D20703D453F8203003B962B63B
:103CE00008BD00BFB48240206485402008B5FCF7C1
:103CF00075FC094B53F820203AB9EFF31082D10735
:103D000000D472B6054941F8202053F82020013232
:103D100043F8202008BD00BFB48340200482402027
:103D200008B5FCF75BFC084B53F82020013A43F838
:103D30002020064A52F82020D20703D453F820301E
:103D400003B962B608BD00BFB4834020048240209E
:103D500008B5FCF743FC094B53F820203AB9EFF3C0
:103D60001082D10700D472B6054941F8202053F8DB
:103D70002020013243F8202008BD00BF748340207A
:103D80004485402008B5FCF729FC084B53F8202057
:103D9000013A43F82020064A52F82020D20703D4E3
:103DA00053F8203003B962B608BD00BF74834020C9
:103DB0004485402008B5FCF711FC094B53F820203E
:103DC0003AB9EFF31082D10700D472B6054941F831
:103DD000202053F82020013243F8202008BD00BFE6
:103DE00034824020F484402008B5FCF7F7FB084BF0
:103DF00053F82020013A43F82020064A52F82020A8
:103E0000D20703D453F8203003B962B608BD00BF0F
:103E100034824020F484402008B5FCF7DFFB094BD6
:103E200053F820203AB9EFF31082D10700D472B6CC
:103E3000054941F8202053F82020013243F8202082
:103E400008BD00BF448340201485402008B5FCF71E
:103E5000C5FB084B53F82020013A43F82020064ABE
:103E600052F82020D20703D453F8203003B962B6A9
:103E700008BD00BF448340201485402008B5FCF7EE
:103E8000ADFB094B53F820203AB9EFF31082D1076C
:103E900000D472B6054941F8202053F820200132A1
:103EA00043F8202008BD00BF84844020A483402024
:103EB00008B5FCF793FB084B53F82020013A43F870
:103EC0002020064A52F82020D20703D453F820308D
:103ED00003B962B608BD00BF84844020A48340209B
:103EE00008B5FCF77BFB094B53F820203AB9EFF3F8
:103EF0001082D10700D472B6054941F8202053F84A
:103F00002020013243F8202008BD00BF2484402037
:103F10009484402008B5FCF761FB084B53F820203F
:103F2000013A43F82020064A52F82020D20703D451
:103F300053F8203003B962B608BD00BF2484402086
:103F40009484402008B5FCF749FB094B53F8202026
:103F50003AB9EFF31082D10700D472B6054941F89F
:103F6000202053F82020013243F8202008BD00BF54
:103F7000048540207485402008B5FCF72FFB084BD2
:103F800053F82020013A43F82020064A52F8202016
:103F9000D20703D453F8203003B962B608BD00BF7E
:103FA000048540207485402008B5FCF717FB094BB9
:103FB00053F820203AB9EFF31082D10700D472B63B
:103FC000054941F8202053F82020013243F82020F1
:103FD00008BD00BF64824020E482402008B5FCF7A1
:103FE000FDFA084B53F82020013A43F82020064AF6
:103FF00052F82020D20703D453F8203003B962B618
:1040000008BD00BF64824020E482402008B5FCF770
:10401000E5FA094B53F820203AB9EFF31082D107A3
:1040200000D472B6054941F8202053F8202001320F
:1040300043F8202008BD00BF54834020D483402093
:1040400008B5FCF7CBFA084B53F82020013A43F8A7
:104050002020064A52F82020D20703D453F82030FB
:1040600003B962B608BD00BF54834020D48340200A
:1040700008B5FCF7B3FA094B53F820203AB9EFF32F
:104080001082D10700D472B6054941F8202053F8B8
:104090002020013243F8202008BD00BF4484402086
:1040A000C484402008B5FCF799FA084B53F8202047
:1040B000013A43F82020064A52F82020D20703D4C0
:1040C00053F8203003B962B608BD00BF44844020D5
:1040D000C484402008B5FCF781FA094B53F820202E
:1040E0003AB9EFF31082D10700D472B6054941F80E
:1040F000202053F82020013243F8202008BD00BFC3
:10410000248540202482402008B5FCF767FA084B3C
:1041100053F82020013A43F82020064A52F8202084
:10412000D20703D453F8203003B962B608BD00BFEC
:10413000248540202482402008B5FCF74FFA094B23
:1041400053F820203AB9EFF31082D10700D472B6A9
:10415000054941F8202053F82020013243F820205F
:1041600008BD00BF948240201483402008B5FCF7AE
:1041700035FA084B53F82020013A43F82020064A2C
:1041800052F82020D20703D453F8203003B962B686
:1041900008BD00BF948240201483402008B5FCF77E
:1041A0001DFA094B53F820203AB9EFF31082D107DA
:1041B00000D472B6054941F8202053F8202001327E
:1041C00043F8202008BD00BF8483402004844020A1
:1041D00008B5FCF703FA084B53F82020013A43F8DE
:1041E0002020064A52F82020D20703D453F820306A
:1041F00003B962B608BD00BF848340200484402018
:1042000008B5FCF7EBF9094B53F820203AB9EFF366
:104210001082D10700D472B6054941F8202053F826
:104220002020013243F8202008BD00BF2483402015
:104230009483402008B5FCF7D1F9084B53F82020AF
:10424000013A43F82020064A52F82020D20703D42E
:1042500053F8203003B962B608BD00BF2483402064
:104260009483402008B5FCF7B9F9094B53F8202096
:104270003AB9EFF31082D10700D472B6054941F87C
:10428000202053F82020013243F8202008BD00BF31
:10429000C48240203483402008B5FCF79FF9084BC6
:1042A00053F82020013A43F82020064A52F82020F3
:1042B000D20703D453F8203003B962B608BD00BF5B
:1042C000C48240203483402008B5FCF787F9094BAD
:1042D00053F820203AB9EFF31082D10700D472B618
:1042E000054941F8202053F82020013243F82020CE
:1042F00008BD00BFC48340207482402008B5FCF78D
:104300006DF9084B53F82020013A43F82020064A63
:1043100052F82020D20703D453F8203003B962B6F4
:1043200008BD00BFC48340207482402008B5FCF75C
:1043300055F9094B53F820203AB9EFF31082D10711
:1043400000D472B6054941F8202053F820200132EC
:1043500043F8202008BD00BFB4844020648340207F
:1043600008B5FCF73BF9084B53F82020013A43F815
:104370002020064A52F82020D20703D453F82030D8
:1043800003B962B608BD00BFB484402064834020F6
:1043900008B5FCF723F9094B53F820203AB9EFF39D
:1043A0001082D10700D472B6054941F8202053F895
:1043B0002020013243F8202008BD00BF1482402095
:1043C0005484402008B5FCF709F9084B53F8202025
:1043D000013A43F82020064A52F82020D20703D49D
:1043E00053F8203003B962B608BD00BF14824020E4
:1043F0005484402008B5FCF7F1F8094B53F820200D
:104400003AB9EFF31082D10700D472B6054941F8EA
:10441000202053F82020013243F8202008BD00BF9F
:10442000048340203485402008B5FCF7D7F8084BBA
:1044300053F82020013A43F82020064A52F8202061
:10444000D20703D453F8203003B962B608BD00BFC9
:10445000048340203485402008B5FCF7BFF8094BA1
:1044600053F820203AB9EFF31082D10700D472B686
:10447000054941F8202053F82020013243F820203C
:1044800008BD00BFF4834020A482402008B5FCF79B
:10449000A5F8084B53F82020013A43F82020064A9B
:1044A00052F82020D20703D453F8203003B962B663
:1044B00008BD00BFF4834020A4824020002330B513
:1044C0000446184644FA03F204FA03F1C3F10F0557
:1044D000013302F0010201F40041082B02FA05F257
:1044E00021FA05F142EA010242EA000290B2E9D162
:1044F00030BD70B505460E461446FFF79FF92B8870
:10450000C6F10F01012204F001049BB28A408C40E5
:1045100023EA020323439BB22B80BDE87040FFF7E0
:10452000A7B910B504460846FFF7C8FF208010BDA4
:10453000008880B2C2E710B504460846FFF7BEFF08
:10454000238803439BB2238010BD10B50446084660
:10455000FFF7B4FF23889BB223EA0003238010BD3A
:1045600010B504460846FFF7A9FF238843409BB2D5
:10457000238010BDB0F8400080B29FE7B0F8400043
:1045800010B580B20C46FFF799FF0123A3401840F5
:104590002041C0B210BDF8B51646094A0C4652F883
:1045A00020701846FFF78AFF0546304604F5BC64C4
:1045B000FFF784FF40EA054047F82400F8BD00BF3C
:1045C000986040200246003838B518BF0120FCF73B
:1045D000EEF950689A288CBF00200120FCF7E7F91B
:1045E0009368906A022BD46817BFDB02002303F4A0
:1045F000006343F4005302281EBF410501F400117B
:104600000B43516A02291EBF490401F400310B43D8
:10461000116A02291EBF090401F480310B4391691C
:1046200002291EBF090201F480710B43D1690229DE
:104630001EBF890101F040010B43D16A02291EBF50
:10464000C90401F400210B43516902291EBF8903EB
:1046500001F480410B43116902291EBF490101F099
:1046600020010B4304F00F010B4354B9012808D17A
:1046700092F8B800022804D09188244C81F00301FC
:104680000855D2E90001903140F82130D36A012B5E
:1046900017D01F4B116BD3F80C3641BB526B62B174
:1046A000110449BF42F07F42134342F47F0242F4B7
:1046B000794244BF42F081021340154AC2F80C36D9
:1046C00038BD02F1380302F17804124D53F8040B9F
:1046D000102809D0D96BB1F5CC7F05D800F00F00B8
:1046E00001F5247145F821009C42EFD1D1E708047F
:1046F00049BF41F07F410B4341F47F0141F47941CF
:1047000044BF41F081010B40C8E700BF00132940BE
:1047100000C02A4000002940F8B5094B04460E4667
:1047200000251960BC27074B1860A54201D1002065
:10473000F8BD07FB05600135FFF744FFF5E700BF53
:10474000E4614020E861402070B504460038164618
:104750000D4618BF0120FCF72AF90F298CBF002055
:104760000120FCF724F9FFF763F9012E13D0022E84
:1047700007D0AEB954F8253023F4006343F4005356
:1047800003E054F8253023F4005344F82530BDE805
:104790007040FFF767B954F8253043F42053F4E72D
:1047A00000BEFDE7F8B5044600381E460D4618BFAA
:1047B00001201746FCF7FBF80F2906F00F068CBF07
:1047C00000200120FCF7F3F8FFF764F954F82530D6
:1047D000002F23F4001314BF4FF40012002244F8FA
:1047E000253054F82530134344F8253054F825304B
:1047F00023F00F0344F8253054F825301E4344F8C5
:104800002560BDE8F840FFF75FB90F292DE9F041B9
:1048100005468CBF002001200E4690461C46069F90
:10482000FCF7C5F8FFF768F985B155F82630B8F1FF
:10483000000F23F4002314BF4FF40022002245F898
:10484000263055F82630134345F82630102F10D067
:10485000B4F5CC7F0DD8A30007F00F0703F1804318
:1048600003F52413D3F8402A22F00F021743C3F8AC
:10487000407ABDE8F041FFF759B970B504460038F9
:1048800016460D4618BF0120FCF791F80F298CBF82
:1048900000200120FCF78BF8FFF760F9032E0FD8FA
:1048A000DFE806F002121D2254F8253023F400132D
:1048B00044F8253054F8253043F4002344F82530DB
:1048C000BDE87040FFF764B954F8253023F40023A5
:1048D00044F8253054F8253043F40013EEE754F83B
:1048E000253043F42013E9E754F8253023F420134E
:1048F000E4E7F8B5144B044600380D461A68134B2C
:1049000018BF01201E68FCF752F80F298CBF002049
:104910000120FCF74CF80E4B23449B0901EB0313D9
:104920000021B14202D14FF0FF3009E01046BC3205
:1049300052F8B87C9F4204D1FFF744FE54F825009A
:10494000F8BD0131EDE700BFE4614020E86140209F
:10495000C0FDD6BFF8B52E4B0546003816460C46AE
:1049600019682C4B18BF01201A68FCF720F80F2E8D
:104970008CBF00200120FCF71AF8274B4FF0000CE9
:104980002B449B0906EB031394453DD00F46BC31E5
:1049900051F8B80C984238D13A6807F1780104F11F
:1049A0007800C4E9002397F8B830402284F8B83082
:1049B000FCF707F8402207F1380104F13800FCF752
:1049C00000F855F8263003F00F02E260C3F34012FE
:1049D00022619A044CBFC3F3C0220222A260C3F337
:1049E00080326261C3F30022A261C3F38012E261EC
:1049F000C3F340426262C3F300422262C3F3C04287
:104A0000C3F34053E262A362F8BD0CF1010CBBE7B3
:104A1000E4614020E8614020C0FDD6BF431E012B69
:104A200010B5044601D900BEFDE7FFF791F9064B2A
:104A3000012C1A680CBF42F0010242F00202BDE8EC
:104A400010401A60FFF79EB900402C40F8B50646AA
:104A50000D4609BB00BEFDE715F83320022A01D937
:104A600000BEFDE714430133B342F5D1FFF7A2F9CD
:104A70001D4A00212F1D13684FF6FF7C012023EAF9
:104A800004031360B1420AD1174B1A6814431C6027
:104A9000BDE8F840FFF7A8B900242346E4E715F87D
:104AA0003130B3B157F83120624512D01BB21F2A02
:104AB00003EB83034FEA031303F1402303F53013A1
:104AC00009D9203AD3F804E000FA02F242EA0E02D1
:104AD0005A600131D6E7D3F800E000FA02F242EA68
:104AE0000E021A60F5E700BF00402C400C4A0D484A
:104AF00012680368126C10B50B4CA17BE47B02EBCF
:104B0000C10102EBC4024968526891428ABF23F096
:104B1000400323F0010343F00103036010BD00BF15
:104B2000A461402000402640286140200000000091
:104B30005FF800F0016040200301020000002940FE
:104B400000000000000000000302010D150100023A
:104B500052000406645050003C5050001450500065
:104B6000AC4F5000B04E5000A44E5000000000006A
:104B7000944E5000044C500000000000B44B500014
:104B8000844B500000000000000000000100000005
:104B9000006CDC02050000000024F4000E000000A0
:104BA000006889090F00000000B4C4041000000070
:104BB000005A620205000000000000000000000032
:104BC0000024F400000000000E00000000000000BF
:104BD0000000000000688909000000000F000000CC
:104BE000000000000000000000B4C4040000000049
:104BF00011000000000000000000000000B4C40428
:104C00000000000017000000010000001800000074
:104C10000100000019000000010000001B0000005E
:104C2000010000001C000000010000001D00000049
:104C3000010000001F000000010000002000000033
:104C4000010000002100000001000000220000001F
:104C5000010000002300000001000000240000000B
:104C600001000000250000000100000026000000F7
:104C700001000000270000000100000028000000E3
:104C80000100000029000000010000002A000000CF
:104C9000010000002B000000010000002C000000BB
:104CA000010000002D000000010000002E000000A7
:104CB000010000002F000000010000003000000093
:104CC000010000003100000001000000320000007F
:104CD000010000003300000001000000340000006B
:104CE0000100000035000000010000003600000057
:104CF0000100000037000000010000003800000043
:104D00000100000039000000010000003A0000002E
:104D1000010000003B000000010000003C0000001A
:104D2000010000003D000000010000003E00000006
:104D3000010000003F0000000100000040000000F2
:104D400001000000410000000100000042000000DE
:104D500001000000440000000100000049000000C4
:104D6000010000004A000000010000004B000000AC
:104D7000010000004D000000010000004E00000096
:104D8000010000004F000000010000005100000081
:104D9000010000005200000001000000530000006C
:104DA0000100000054000000010000005500000058
:104DB0000100000056000000010000005700000044
:104DC0000100000058000000010000005900000030
:104DD000010000005A000000010000005B0000001C
:104DE000010000005C000000010000005D00000008
:104DF000010000005E000000010000005F000000F4
:104E000001000000600000000100000061000000DF
:104E100001000000620000000100000063000000CB
:104E200001000000650000000100000069000000B2
:104E3000010000006A000000010000006B0000009B
:104E4000010000006C000000010000006D00000087
:104E5000010000007000000001000000720000006E
:104E60000100000073000000010000007400000059
:104E70000100000075000000010000007700000044
:104E8000010000007800000001000000790000002F
:104E9000010000000B000000000000000C000000FA
:104EA000000000000E000000010000000E000000E5
:104EB00008000000020000000000000009000000DF
:104EC00003000000000000000A00000003000000D2
:104ED000000000000E0000000100000000000000C3
:104EE0000F000000020000000000000010000000A1
:104EF000040000000000000011000000020000009B
:104F0000000000001200000004000000000000008B
:104F10001300000004000000000000001400000066
:104F20000100000000000000150000000200000069
:104F3000000000001A000000020000000000000055
:104F400043000000010000000000000045000000D8
:104F50000100000000000000470000000100000008
:104F6000000000004C0000000300000000000000F2
:104F70005000000002000000000000006700000078
:104F800002000000000000006F00000001000000AF
:104F9000000000007100000001000000000000009F
:104FA0007600000001000000000000000D0000007D
:104FB0000900000015000000050000001A000000B4
:104FC0000100000043000000010000004500000057
:104FD0000100000047000000010000004C0000003C
:104FE0000100000050000000010000006700000008
:104FF0000100000068000000060000006F000000D3
:1050000001000000710000000100000076000000B7
:105010000100000007000000010000000500000082
:105020000002000000000000780100000000000005
:10503000000000000000000000000000050000006B
:105040000024F4000100310000010C000000000009
:10505000060000000080000001007D00000000004C
:10506000000000000100000001000001000000003D
:10507000020000000000000000000000040000002A
:105080000000000000000000000000000000000020
:10509000586A5000306A50005A00000000000000BA
:1050A000010000000100000060565000404B50001D
:1050B0004856500002008C007B0100000C54500048
:1050C00004545000D4535000DC5050003C56500063
:1050D000445650004C575000C45850000000000087
:1050E00000000000FF00FF00FF00FF00FF00FF00C6
:1050F000FF00FF00FF00FF00FF00FF0000000000B6
:10510000000000000000000000000000000000009F
:10511000000000000000000000000000000000008F
:10512000000000000000000000000000000000007F
:10513000000000000000000000000000000000006F
:10514000000000000000000000000000000000005F
:10515000000000000000000000000000000000004F
:10516000000000000000000000000000FF00FF0041
:10517000FF00FF00FF00FF00FF00FF000000000035
:10518000000000000000000000000000000000001F
:10519000000000000000000000000000000000000F
:1051A000000000000000000000000000FF00FF0001
:1051B000FF00FF00FF00FF00FF00FF00FF00FF00F7
:1051C000FF00FF00FF00FF00FF00FF00FF00FF00E7
:1051D000FF00FF00FF00FF00FF00FF00FF00FF00D7
:1051E000FF00FF00FF00FF00FF00FF00FF00FF00C7
:1051F000FF00FF00FF00FF00FF00FF0000000000B5
:105200000000000000000000FF00FF0000000000A0
:10521000000000000000000000000000000000008E
:10522000000000000000000000000000000000007E
:10523000000000000000000000000000000000006E
:10524000000000000000000000000000000000005E
:1052500000000000000000000000FF00FF00FF0051
:10526000FF00FF00FF00FF00FF00FF00FF00FF0046
:10527000FF00FF00FF00FF00FF00FF00FF00FF0036
:10528000FF0000000000000000000000000000001F
:10529000000000000000000000000000000000000E
:1052A00000000000000000000000000000000000FE
:1052B00000000000000000000000000000000000EE
:1052C00000000000000000000000000000000000DE
:1052D00000000000000000000000FF00FF00FF00D1
:1052E000FF00FF00FF00FF00FF00FF00FF00FF00C6
:1052F000FF00FF00FF00FF00FF00FF00FF00FF00B6
:10530000FF00FF00FF00FF00FF00FF00FF00FF00A5
:10531000FF00FF00FF00FF00FF00FF00FF00000094
:105320000000000000000000000000000000FF007E
:10533000FF00FF00000000000000FF00FF00000071
:105340000000000000000000FF00FF00FF00FF0061
:10535000FF0000000000000000000000000000004E
:105360000000000000000000FF00FF00FF00FF0041
:10537000FF00FF00FF00FF00FF00FF00FF00FF0035
:10538000FF00FF00FF00FF00FF0000000000000022
:10539000000000000000000000000000000000000D
:1053A00000000000000000000000000000000000FD
:1053B00000000000000000000000FF00FF00FF00F0
:1053C000FF000000000000000000000000000000DE
:1053D000000000005300000000002000000000005A
:1053E0000100000001010100FFFF00005500000066
:1053F0000000200000000000010000000101010089
:10540000FFFF000000000800010000000000000095
:105410000100000002000000030000000400000082
:105420000500000006000000070000000800000062
:10543000090000000A0000000B0000000C00000042
:105440000D0000000E0000000F0000001000000022
:105450001100000012000000130000001400000002
:105460001500000018000000190000001B000000DB
:105470001C0000001D0000001E0000001F000000B6
:105480002000000021000000220000002300000096
:105490002400000025000000280000002900000072
:1054A0002A0000002B0000002C0000002D0000004E
:1054B0002E0000002F00000030000000310000002E
:1054C000320000003300000034000000350000000E
:1054D00036000000370000003800000039000000EE
:1054E0003A0000003B0000003C0000003D000000CE
:1054F00040000000410000004200000043000000A6
:105500004400000045000000460000004700000085
:1055100048000000490000004A0000004B00000065
:105520004C0000004D0000004E0000004F00000045
:105530005000000051000000520000005400000024
:105540005700000058000000590000005A000000F9
:105550005B0000005C0000005D0000005E000000D9
:105560005F000000600000006100000062000000B9
:105570006300000064000000650000006600000099
:105580006700000068000000690000006A00000079
:105590006B0000006C0000006D0000006E00000059
:1055A0006F00000070000000710000007400000037
:1055B0007500000076000000770000007800000011
:1055C0007A0000007B0000007C0000007D000000ED
:1055D0007E0000007F0000008000000081000000CD
:1055E00082000000830000008400000085000000AD
:1055F000860000008700000088000000890000008D
:105600008A0000008B0000008C0000008D0000006C
:105610008E0000008F00000090000000910000004C
:105620009200000095000000960000009700000026
:1056300098000000990000009A000000010000009E
:105640000100000001000000545650005056500068
:1056500003000000000000000F0000000000000038
:1056600000000000200000000000000084565000F0
:105670007456500000000000000000000000000010
:1056800000000000071F00008C56500001010000C0
:105690000100000001000000010000002857500038
:1056A0000200000034575000010101000100000019
:1056B0000100000004000000F85650000000000047
:1056C00000000000010102000100000001000000D4
:1056D00002000000E0565000000000000000000042
:1056E0000100000000000000F0FFFF2901010000A0
:1056F000000000400100884001000000000020116F
:10570000F8FFE0B10101000004242A0007A42A8167
:1057100001020000000000301E3EF0BB010300004B
:105720000001000001010000010100000010000064
:10573000CF33000001000000000000000000000066
:1057400001010000000000000000000000002940EE
:1057500053000000020000000000000000000000F4
:105760000200000000000000000000000000000037
:105770000000000001000000000000000000000028
:1057800000000000100000001000000010000000E9
:1057900010000000100000001000000010000000C9
:1057A00010000000100000001000000010000000B9
:1057B00010000000100000001000000010000000A9
:1057C00010000000000000000000000000000000C9
:1057D00000000000000000000000000000000000C9
:1057E00000000000000000000000000000000000B9
:1057F00000000000000000000000000000000000A9
:1058000000000000000000000000294055000000DA
:105810000200000000000000000000000200000084
:105820000000000000000000000000000000000078
:105830000100000000000000000000000000000067
:105840001000000010000000100000001000000018
:105850001000000010000000100000001000000008
:1058600010000000100000001000000010000000F8
:1058700010000000100000001000000010000000E8
:105880000000000000000000000000000000000018
:105890000000000000000000000000000000000008
:1058A00000000000000000000000000000000000F8
:1058B00000000000000000000000000000000000E8
:1058C0000000000000000000FFFF000000000000DA
:1058D0001F00000000010800000100000001090095
:1058E00000020000000000000000000000000000B6
:1058F00000000000000000000000000000000000A8
:105900000000000000000000000000000000000097
:105910000000000000000000000000000000000087
:1059200000000000000101000200000001021C0054
:105930000000001001021D00000000200000000017
:105940000000000001030000010000000101000050
:10595000010000000101010002000000010003003D
:105960000800000001000400100000000100050014
:1059700020000000010006004000000001000700B8
:105980008000000001000800000100000100090083
:105990000002000001000A000004000001000B00EA
:1059A0000008000001000C000010000001000D00C4
:1059B0000020000001000E000040000001000F0068
:1059C000008000000200040010000000020005003A
:1059D0002000000002000600400000000200070056
:1059E0008000000002000800000100000200090021
:1059F0000002000002000A000004000002000B0088
:105A00000008000002000C000010000002000D0061
:105A10000020000002000E000040000002000F0005
:105A200000800000020010000000010002001100D0
:105A30000000020002001200000004000200130037
:105A40000000080002001400000010000200150011
:105A500000002000020016000000400002001700B5
:105A6000000080000100160000004000000000005F
:105A70000000000000000000000000000000000026
:105A8000000000000201000001000000000102000F
:105A900004000000000103000800000000000000F6
:105AA000000000000100170000008000000000005E
:105AB00000000000000000000000000000000000E6
:105AC00000000000000000000000000000000000D6
:105AD00000000000000000000000000001020100C2
:105AE00002000000010202000400000001020300A5
:105AF0000800000001020400100000000000000087
:105B00000000000000000000000000000102090089
:105B10000002000000000000000000000000000083
:105B200000000000000000000000000001001F0055
:105B30000000008000010600400000000001070096
:105B40008000000001021400000010000102150096
:105B500000002000010216000000400001021700B2
:105B6000000080000102180000000001010219007D
:105B70000000000200000000000000000000000023
:105B80000000000001020A000004000001020B00F6
:105B90000008000001020C000010000001020D00CE
:105BA00000200000000000000000000000000000D5
:105BB00000000000000000000000000000000000E5
:105BC00000000000000000000000000000000000D5
:105BD00000000000000000000000000000000000C5
:105BE00000000000000000000000000000000000B5
:105BF00000000000000000000000000000000000A5
:105C0000000000000100180000000001000000007A
:105C100000000000000000000000000000010C0077
:105C20000010000000010D000020000001011F0015
:105C300000000080000000000000000000000000E4
:105C40000000000002011300000008000101020032
:105C50000400000001021B00000000080201170000
:105C600000008000020018000000000101010A008D
:105C70000004000000000000000000000000000020
:105C80000000000000000000000000000000000014
:105C90000000000000000000000000000000000004
:105CA00000000000010308000001000001001D00C9
:105CB0000000002002001D00000000200000000085
:105CC00000000000000000000000000000000000D4
:105CD0000000000001001C000000001002001B007A
:105CE00000000008000000000000000000000000AC
:105CF0000000000001021F00000000800001000001
:105D000001000000010111000000020001010D006E
:105D10000020000000000000000000000000000063
:105D20000000000000000000000000000000000073
:105D30000000000000000000000000000000000063
:105D40000000000000000000000000000000000053
:105D50000000000000000000000000000000000043
:105FA0000000000000000000000000000000000FE2
:105FB0001800000000000000000000000000003F8A
:105FC0001800000000003F00100000000000003F2B
:105FD0001800000000000700100000000000001F73
:105FE0001800000000003F00100000000000001F2B
:105FF0001800000000003F00100000000000001F1B
:106000001800000000003F00100000000000000029
:106010000000000000000000000000000000001F61
:106020001800000000000300100000000000001F26
:106030001800000000000300100000000000000035
:106040000000000000000000000000000000000F41
:106050001800000000000700100000000000001FF2
:106060001800000000000100100000000000001FE8
:1060700018000000000001001000000000000000F7
:106080000000000000000000000000000000000010
:106090000000000000000000000000000000000FF1
