:020000040040BA
:10000000A55AA55A030000000000000000084000A7
:100010000000000000005000000000000008400048
:1000200000000000000000000000000000000000D0
:1000300000000000000000000000000000000000C0
:1000400000000000000000000000000000000000B0
:1000500000000000000000000000000000000000A0
:1008000000000120210C4000710E4000730E4000DA
:10081000750E4000770E4000790E40000000000089
:100820000000000000000000000000007B0E4000FF
:100830007D0E4000000000007F0E4000810E400051
:10084000830E4000830E4000830E4000830E400064
:10085000830E4000830E4000830E4000830E400054
:10086000830E4000830E4000830E4000830E400044
:10087000830E4000830E4000830E4000830E400034
:100C0000830E4000830E400000BF00BF00BF00BF46
:100C1000FFF7FABF00000000000000000000000025
:100C200072B64FF000004FF000014FF000024FF09D
:100C300000034FF000044FF000054FF000064FF0A6
:100C400000074FF0640001380028FCDC4C480168C4
:100C50004FF0807201EA020100291CD14948016865
:100C60004FF0807241EA02010160474801684FF08D
:100C7000010241EA02010160444845F6F0210160A9
:100C80004AF20F5101603E4801684FF0807201EA5C
:100C900002010029F7D03E483E4901603E490868FC
:100CA00020F0040040F0010008603C49086820F092
:100CB000040040F001000860394880F30888394892
:100CC00001684FF00000814200D015E036484CF238
:100CD000205101604DF6281101603448344901600B
:100CE0000AE034484CF2205101604DF628110160B1
:100CF00031482F490160FFE73048002814D03048C0
:100D000001684FF0010201EA0201002902D02D49D9
:100D10002D4A01E02D492C4A521A013A04DD0020E7
:100D2000002309C1083AFCDA2948002809D02949DA
:100D3000294A521A013A04DD0020002309C1083A69
:100D4000FCDA2648002809D02549264A521A013AD9
:100D500004DD0020002309C1083AFCDA22480068BB
:100D60004FF05A318842F9D000F0B6F800F02AF975
:100D700062B600F025F900F039F800BFFEE700BFC9
:100D800010C32D4030C32D4004C32D4000C02D4062
:100D900008ED00E00000002094EF00E090EF00E09C
:100DA00000000120040026401000274000002740DA
:100DB000400000FF10C0464000C046400100000057
:100DC00000C028400000402000604020A0004020DB
:100DD00001000000000000200000012001000000D0
:100DE000000000000080000020014020024B1A6833
:100DF000002AFCD01868704718014020024B586840
:100E000000F00300704700BF00002640EFF31080A1
:100E10007047EFF31080704782B08DF807009DF89F
:100E200007300BB900BEFDE702B07047884210B52D
:100E300001EB020402D98442234607D8431EA14293
:100E400008D011F8012B03F8012FF8E702440146FE
:100E50008A4200D110BD13F8014D02F8014DF7E7A9
:100E600002440346934200D1704703F8011BF9E79F
:100E7000FEE7FEE7FEE7FEE7FEE7FEE7FEE7FEE74A
:100E8000FEE7FEE74FF0E022D2F80C3D23F4E063EA
:100E90001843C2F80C0D70474309012200F01F00EF
:100EA000403302FA00F04FF0E02242F8230070478E
:100EB0004309012200F01F00603302FA00F04FF0F6
:100EC000E02242F823007047090100F1E020C9B296
:100ED00080F80014704700002DE9F8431F4B0025EF
:100EE0001E68B54207D11E4C00262768B046BE4298
:100EF00021D1BDE8F883D3E90101DA680024521A50
:100F000002F0030C9208A24209D101EB820100EB2E
:100F100082020020844508D801350C33E1E751F8FE
:100F2000247040F824700134EDE711F8014B0130D2
:100F300002F8014BEEE7D4E9013500210136ED1A44
:100F40001846083425F003024FEA9509FFF788FF99
:100F5000AA0718BF40F82980C9E700BFA454400081
:100F6000F0544000144B0C22F0B5144D1E6802FBE7
:100F70000533B54200D3F0BDD3E90101DA6800249E
:100F8000521A02F0030C9208A24209D101EB82012D
:100F900000EB82020020844508D801350C33E8E7D5
:100FA00051F8247040F824700134EDE711F8014B3A
:100FB000013002F8014BEEE7A454400000000000AD
:100FC0007047FEE7A04B00215B6813F0030F0CBFD6
:100FD00001200020F0B54B00013103F18043F029DE
:100FE00003F51813B3F8802892B242EA0002A3F87E
:100FF0008028F0D14FF0E022D2F8883D43F470030E
:10100000C2F8883DBFF34F8FBFF36F8F8F4B002423
:101010008F491C60D9638F498F4859608F49904D23
:1010200019649049996001F5800158648E48D86030
:101030008E4898644FF0D85018618D48D8648D4818
:1010400058618D4818658D4898618D4840EA450083
:101050008C4D58658C48D8618C4840EA45059D65A3
:101060008B4D1D628B4D40EA4500D8654FF08040A6
:10107000586289481866894898624FF0CE405C668D
:10108000D862874898664FF0D04018638548D86684
:101090004FF0604058638448186799635C67BFF3FA
:1010A0004F8FBFF36F8FD2F8141D8F0303D4D2F884
:1010B000142DD60366D54FF0E0210022C1F8842D0F
:1010C000BFF34F8FD1F8802D43F6E075C2F3C9040A
:1010D000C2F34E32520102EA0507204647EA807603
:1010E000C1F8746FBFF34F8F0138F7D2203A12F175
:1010F000200FF0D1D1F8842D42F00102C1F8842DE7
:101100000022C1F8502FBFF34F8FC1F8842DBFF3D9
:101110004F8FD1F8802D43F6E0754FF0E021C2F3F8
:10112000C904C2F34E32520102EA0507204647EADB
:101130008076C1F8746FBFF34F8F0138F7D2203A31
:1011400012F1200FF0D1D1F8842D42F00102C1F844
:10115000842D0022C1F8502FBFF34F8FD1F8142DEA
:1011600022F40032C1F8142DBFF34F8FBFF36F8FFD
:10117000D1F8142D22F48032C1F8142DBFF34F8F13
:10118000BFF36F8F00224FF0E020114603EB820483
:10119000E56BED070AD5C0F8981D013153F82250D0
:1011A000C9B2C0F89C5DE46BC0F8A04D01320F2AB3
:1011B000ECD14FF0E023D3F8942D42F00302C3F8B2
:1011C000942DBFF34F8FBFF36F8F0022C3F8842D90
:1011D000BFF34F8FD3F8802D43F6E074C2F3C900FC
:1011E000C2F34E32520102EA0406014646EA817514
:1011F000C3F8605FBFF34F8F0139F7D2203A12F185
:10120000200FF0D1BFF34F8FD3F8142D42F480326A
:10121000C3F8142DBFF34F8FBFF36F8FBFF34F8F02
:10122000BFF36F8F0022C3F8502FBFF34F8FBFF370
:101230006F8FD3F8142D42F40032C3F8142DBFF38E
:101240004F8FBFF36F8FF0BD00002640A0004020FD
:101250003F0004100000000029000B071F000803D6
:101260000D000000000040000000001023000B16DD
:1012700019000B1600000020210008030000402088
:1012800001000B030C0000000040402001000C1383
:1012900000C040200D0000002DC00413000060407D
:1012A0001300041335000B032700041370472DE9C6
:1012B000F047B64D01210446286001F0A7FC2B68D9
:1012C000002B40F03A81E67AB14FDFF8FC82DFF87C
:1012D000FC92002E40F03881A67BAE4FDFF8F08202
:1012E000DFF8E892002E40F03F81A67AAA4FDFF89F
:1012F000E482DFF8D892002E40F07E81667AA74F14
:10130000DFF8D482DFF8C492002E40F086813746A1
:10131000DFF8A082DFF8C492DFF8B0A2237ABB42E4
:1013200000F28C810027DFF87482DFF8AC92DFF8DE
:101330009CA2637ABB4200F29381286800250221B7
:1013400001F064FCE27BEBB29A4200F29B81944B89
:101350001D78002D38D10122924F294628461A7057
:101360007B689847BB687B208A4F98478E4B2846FE
:101370001B6898478D4B28461B689847874B284623
:101380001B6898477B6828469847BB68884F7B2036
:10139000984728463B68984729467B687B209847B2
:1013A000844B7D4F28461B6898477B6828469847A2
:1013B000BB687B209847764B28465B6898477E4BF6
:1013C000294628461B68984701237C49E27C9A42BB
:1013D00000F262810025784FDFF80482DFF8EC919B
:1013E000637CAB4200F25F810025704FDFF8F4812F
:1013F000DFF8D891637BAB4200F2668100256A4F2B
:10140000DFF8E481DFF8C491237BAB4200F26C810A
:101410000025664FDFF8CC81DFF8B091637BAB42EB
:1014200000F2728100255C4FDFF8A881DFF89C9103
:10143000A37AAB4200F2798100255A4FDFF884810C
:10144000DFF88891A37CAB4200F281810025534FE5
:10145000DFF88481DFF87491637AAB4200F289810E
:1014600000254D4FDFF86C81DFF86091A37AAB4225
:1014700000F291810025474FDFF85481DFF84C914D
:10148000A37BAB4200F29981DFF8608101234C4FCE
:1014900000257B210420BB70D8F800303D707D70A2
:1014A000FD70984701F0DEFBD8F800307B21052065
:1014B0009847D8F800307B2106209847DFF8D09075
:1014C00001F0CEFBDFF800A1D8F800307B21DFF877
:1014D000208107209847E37AAB4200F280813D7873
:1014E000002D40F0B681324FDFF80881DFF8DC9044
:1014F000237CAB4200F28D812A4D324FDFF8CC8045
:10150000A37CB34200F2958120460421BDE8F04758
:1015100001F07CBB1422E06B724301368358104407
:1015200003EBC3034B445B7818F803301B01FB58F3
:101530009847A37CB342EDD8C5E60026194FDFF8E3
:101540008480DFF88890F4E7206A013E50F8363056
:1015500000EBC60003EBC3034B445B7818F8033081
:1015600057F833309847B4E6013EE06A0C22330165
:10157000C35800EB061003EBC3034B445B7818F829
:1015800003305343FB589847ACE600BFA40140200A
:101590007C544000E05340004C544000A4534000B1
:1015A000A80140202C544000845340009453400034
:1015B000EC534000FC53400074544000280140208C
:1015C000240140202A5340003C534000D74E4000A5
:1015D0004E53400045534000695340006053400063
:1015E00033534000725340007B5340009000402032
:1015F000684C400057534000013E2822E069142106
:1016000072438358104403EBC3034B445B7818F8D0
:1016100003304B43FB5898476DE61421013EA06907
:1016200001FB06F28358104403EBC3034B445B7881
:1016300018F803304B43FB58984765E60C21606966
:1016400001FB07F201378358104403EBC3035344F3
:101650005B7819F803304B4358F8033098475DE640
:101660001421A06901FB07F201378358104403EBF2
:10167000C30353445B7819F8033001FB03835B68B1
:10168000984756E6226B013502EBC30152F833004E
:10169000496800F014FC55E6226C52F833208B5454
:1016A0000133DBB292E61422A06B29466A4301356E
:1016B0008358104403EBC3034B445B7818F80330A2
:1016C00057F8233098478BE60C22A06A6A4301350D
:1016D0008358104403EBC3034B445B7818F8033082
:1016E00057F83330984785E60C22606A6A43013523
:1016F0008358104403EBC3034B445B7818F8033062
:1017000057F8233098477FE60C22A06A6A430135D8
:101710008358104403EBC3034B445B7818F8033041
:1017200007EBC3035B68984778E62822E069142139
:101730006A4301358358104403EBC3034B445B7881
:1017400018F8033001FB03735B68984770E61422B6
:10175000E06B29466A4301358358104403EBC30309
:101760004B445B7818F8033007EB03135B6898472A
:1017700068E61421A06901FB05F201358358104485
:1017800003EBC3034B445B7818F8033001FB03738E
:101790009B68984760E62822E06914216A43013576
:1017A0008358104403EBC3034B445B7818F80330B1
:1017B00001FB0373DB68984758E6E06A2B010C22B3
:1017C000C35800EB0510013503EBC3034B445B78B2
:1017D00018F8033002FB03735B68984750E6226AEF
:1017E00002EBC500436858F82330032B0ED052F8A3
:1017F0003530194A03EBC30313445B781AF80330FE
:1018000009EBC3035B689847013564E601233B702D
:10181000FAE7606B50F8353000EBC500013503EB9B
:10182000C3034B445B7818F8033057F833309847BC
:101830005EE61422E06B724301368358104403EBDA
:10184000C30343445B78FB5C05EB0313DB689847F9
:1018500056E6BDE8F08700BFD74E40002DE9F047BF
:101860001F4F002502241F4EDFF88880B378AB425B
:101870001CD864BB1C4F2546DFF87C80DFF87C90C9
:10188000DFF868A0F3789D4221D257F8040B0C22B0
:1018900000EBC00353445B7819F8033002FB038369
:1018A0009B689847012811D00135EBE757F8040BE6
:1018B0000E4B00EBC00213440D4A5B78D35C14223C
:1018C00002FB03839B689847012803D1012420462B
:1018D000BDE8F087022805F1010508BF0024C5E72F
:1018E000644C400024014020604C4000D74E400032
:1018F000455340004C544000E05340004E534000DC
:101900002DE9F0412F4D2B682BBBBDE8F0811B6A00
:1019100003EBC400426856F82220032A0CD153F886
:101920003430294A03EBC30313445B7818F80330BF
:1019300007EBC3035B68984701342B68DA7A94425B
:10194000E5D3224B1B78002BDFD00024204E214F03
:10195000DFF8748013E000241F4E204FDFF88880EA
:10196000EBE7586B50F8343000EBC400013403EB64
:10197000C30343445B78FB5C56F8333098472B68CD
:101980001A7C9442EDD30024154E164FDFF83880B0
:101990002868837C9C4204D30421BDE8F04101F017
:1019A00035B91422C06B624301348358104403EBF1
:1019B000C30343445B78FB5C06EB0313DB68984787
:1019C000E6E700BFA4014020D74E4000240140209C
:1019D000EC53400057534000684C40007C5440009A
:1019E0002C5440002A5340003C53400010B5FFF7F0
:1019F0005EFC064B1C782CB1FFF730FF044618B98B
:101A0000FFF77EFF204610BD0124FBE724014020A4
:101A1000054A00EBC0031344044A5B78D25C044BD4
:101A200003EB02139B681847D74E40002A5340002F
:101A30002C544000014B1860704700BF90004020BC
:101A4000064A00EBC00301211344054A5B78D25CCF
:101A5000044B03EBC2035B68184700BFD74E40003E
:101A600057534000EC534000064A00EBC0030021EE
:101A70001344054A5B78D25C044B03EBC2035B68FA
:101A8000184700BFD74E400057534000EC5340006A
:101A900008B5044B0221186801F0B8F8BDE8084009
:101AA00001F088B8A401402008B5044B0221186851
:101AB00001F0ACF8BDE8084001F084B8A401402072
:101AC00008B5044B0221186801F0A0F8BDE80840F1
:101AD00001F086B8A401402008B5044B0221186823
:101AE00001F094F8BDE8084001F082B8A40140205C
:101AF000014B1B68184700BF90004020F8B507460F
:101B000000200E4614461D4601F0B2F80021386050
:101B10002846316001F0B3F82060F8BD38B50C46B6
:101B20000021154601F0A6F823681844A842206059
:101B300034BF0020012038BD704710B5D0B14368D4
:101B4000C3B10268013B0C4902EBC2021B04885C72
:101B50008C180A4A03F47023617952F8302002EBA2
:101B60008102D2F8801021F470210B4343F000432E
:101B7000C2F8803010BD00BFD74E4000984D4000E5
:101B800098B10368094A03EBC303D25C084B53F8CE
:101B9000321043688A68012B22F0FC4238BF0123CF
:101BA0005B0603F0FC4313438B607047D74E400045
:101BB000984D4000F0B5064685B000283FD0026839
:101BC0001425224802EBC20273688118805C0A79EE
:101BD0004C7905FB00221E4850F8225073B18F78D3
:101BE00005EB84001B49013B826801EB0711CF68BC
:101BF0008968BB4053400B40534083604CF25033E4
:101C000003AA02A901A8FFF779FFEF6B02A9039AC3
:101C100001A8FFF783FFFB0706D50028F5D0316840
:101C20000120FFF765FF0AE00028F8D124B27368AD
:101C300005EB84042BB1A36843F00043A36005B017
:101C4000F0BDA36823F00043F8E700BFD74E400083
:101C5000B44D4000404A4000704780B103680A4AD2
:101C600003EBC303D118D25C0B79142101FB0233BF
:101C7000064A52F82330426812B101225A63704773
:101C80005A6B22F00102F9E7D74E4000B44D4000F4
:101C90007FB5044640B3436833B3036801A8134AD1
:101CA00003EBC303D118D25C0B79142101FB02337F
:101CB0000F4A02A952F82350012303AAAB634CF246
:101CC0005033FFF71BFFEE6B02A9039A01A8FFF741
:101CD00025FFF30706D50028F5D021680120FFF77E
:101CE00007FF01E00028F8D104B070BDD74E4000D6
:101CF000B44D40007047704758B10368054A03EB84
:101D0000C303D25C044B53F82220136823F0010371
:101D100013607047D74E4000A84D4000E0B10389E2
:101D2000D3B103680D4A03EBC303D25C0C4B53F8E9
:101D300022104389427B1B04120603F47F0302F046
:101D400080721343027B43EAC273827B1201D2B2D8
:101D5000134343F001030B60704700BFD74E4000B0
:101D6000A84D4000054B00EBC0001A5C044B53F833
:101D70002220136823F0010313607047D74E400000
:101D8000A84D400070B10389012B0BD10368064AAE
:101D900003EBC303D25C054B53F82220136843F0D6
:101DA00001031360704700BFD74E4000A84D4000AC
:101DB000A2E780B1038973B10368074A03EBC30349
:101DC000D25C064B53F8222043891B0403F47F03A3
:101DD00043F0010313607047D74E4000A84D400008
:101DE0007FB5044618B303890BB3037B016803BBBB
:101DF00001EBC101124B03AA01A85D5C4CF2503308
:101E000002A9FFF77BFE0F4B53F825506E6802A91D
:101E1000039A01A8FFF782FE002E06DB0028F5D00A
:101E200021680120FFF764FE01E00028F8D104B02A
:101E300070BD022004B0BDE87040FFF759BE00BF7E
:101E4000D74E4000A84D40007FB5044628B3038913
:101E50001BB3437B0BB3037B016803BB01EBC101E5
:101E6000124B03AA01A85D5C4CF2503302A9FFF7A4
:101E700045FE0F4B53F825506E6802A9039A01A83E
:101E8000FFF74CFE002E06DB0028F5D0216801206C
:101E9000FFF72EFE01E00028F8D104B070BD02204B
:101EA00004B0BDE87040FFF723BE00BFD74E40002E
:101EB000A84D40007047704770470020704770473A
:101EC000704770472DE9FF410446002873D003682E
:101ED0003A4A03EBC30381881344394A9B7912F8C9
:101EE000336002EBC302374B5778556853F82630FE
:101EF000002930D053F8271029425CD153F827101D
:101F0000DFF8C880294343F827102F4B53F82630B9
:101F10001A6842F001021A605A6842F001025A60DF
:101F200000F03EFD4CF2503303AA02A901A8FFF7CE
:101F3000E5FD039A02A901A8FFF7F0FD58F8263045
:101F400053F827302B4234D10028F2D021680120E9
:101F5000FFF7CEFD2FE053F8271029422BD053F87E
:101F60002710DFF8688021EA050143F82710164B97
:101F700053F826301A6842F001021A605A6842F09B
:101F800001025A6000F00CFD4CF2503303AA02A982
:101F900001A8FFF7B3FD039A02A901A8FFF7BEFD50
:101FA00058F8263053F827302B4202D00028F2D0C0
:101FB000CCE70028CAD104B0BDE8F081D74E40007C
:101FC00068434000E04C4000C04C4000D04C400012
:101FD00007B581F0010100906846ADF80410FFF7E5
:101FE00071FF03B05DF804FB70477047024A9368C5
:101FF00043F001039360704700002D40024A93684C
:1020000023F001039360704700002D40024AD3681B
:1020100043F48073D360704700802C40024AD36839
:1020200023F48073D360704700802C40F0B50446E1
:1020300085B000282BD0C379013BDBB2022B26D818
:10204000174A526E520F052A23D1164A02A9164E7C
:1020500001A8D55C4CF2503303AAFFF74FFDD6F828
:10206000887102A9039A01A8FFF758FD002F06DB2B
:102070000028F4D021680120FFF73AFD07E000288E
:10208000F8D1074A536E23F003031D43556605B08C
:10209000F0BD01680A2005B0BDE8F040FFF728BD9B
:1020A00000C03940183E400000C02D4030B1828849
:1020B000054B22B19A6842F001029A6070479A6813
:1020C00022F00102F9E700BF00002D4030B1828804
:1020D000054B22B1DA6842F48072DA607047DA6840
:1020E00022F48072F9E700BF00802C4000F0E0B8D5
:1020F000704770477047F0B5002869D00268354BCB
:1021000002EBC204344E23441B7A06EB0316D0E9DB
:10211000025300796A40F4685A4042402F4850F810
:102120002170974253D040F821202D4A2D48126843
:10213000116C7268825C01EBC2025268B2F57A7F60
:1021400045D3B668805D01EBC0014968B1F57A7F7F
:102150003DD3B3F57A7F3AD34FF47A7640F2C7375E
:10216000B2FBF6F2B1FBF6F1B3FBF6F302EB420081
:1021700057430A26B0FBF1F002EB82010130B1FBBC
:10218000F3F10931884238BF084640F2F331434346
:10219000704359436060B1FBF7FC07FB1C117143AE
:1021A000B1FBF7F140F2DD3706FB0C117B4340F247
:1021B000094704317A43A160B3FBF2F702FB1733FE
:1021C0007343B3FBF2F306FB0733033BE360656144
:1021D000F0BD00BFD74E4000F04C4000AC014020A5
:1021E000A40140202801402078B10368094A03EB8C
:1021F000C303017913441A7A074B03EB0213DA681D
:10220000136819B143F001031360704723F0010311
:10221000FAE700BFD74E4000F04C40007FB500EB1E
:10222000C0021A4B054613441A7A194B03EB0213EA
:10223000DC6800F05BFD2368DA071BD54CF25033F5
:1022400003AA02A901A8FFF759FC266902A9039A6B
:1022500001A8FFF763FCF30606D40028F5D0294651
:102260000120FFF745FC01E00028F8D1236823F0A6
:1022700001032360636923F00F036361236943F063
:102280000303236100F04CFD04B070BDD74E400045
:10229000F04C400008B10068C0E77047034B53F8AA
:1022A0002030186900F00300704700BF7C4D4000EB
:1022B000F8B50D4D00240D4E0D4F55F8042B316827
:1022C000136903F0030361B151690B4005D057F85E
:1022D000241000201361FFF70BFC0134072CECD114
:1022E000F8BD1361F9E700BF7C4D4000A401402018
:1022F000604D4000704702207047704710B590B1A4
:1023000003680E4A03EBC303D25C0D4B03EBC2011F
:1023100053F8322000230C79D9B28C4204D81368C8
:1023200043F00043136010BD02EB83000133D0F88B
:10233000801021F00041C0F88010EDE7D74E40003A
:10234000984D400010B5002844D08388002B41D020
:102350000368214A03EBC303047DD25C1F4B53F88F
:102360003220437B91681B0321F4E14103F4E043F5
:1023700021F07F012343448A0B431949C4F30E041F
:10238000936013691940037F9B0703F08043234345
:102390000B431361447D837DA107002C4FEA4373F7
:1023A00001F0804103F0005343EA0103418B008BAD
:1023B000C1F30A0143EA01030A4901EA004143EA81
:1023C0000103D3600CBF802300239361136823F0C3
:1023D0000043136010BD00BFD74E4000984D400031
:1023E0000080FFBF0000FF0370B18388012B0BD179
:1023F0000368064A03EBC303D25C054B53F8322053
:10240000136823F000431360704700BFD74E4000AD
:10241000984D40007FB500EBC003134A0446D25CE0
:10242000124B53F832502B68002B1BDB4CF250330D
:1024300003AA02A901A8FFF761FB6E6802A9039A2B
:1024400001A8FFF76BFB730708D40028F5D0012023
:102450002146FFF74DFB012004B070BD0028F6D1E6
:102460000220F9E70020F7E7D74E4000984D4000E2
:102470007047F0B500287FD0C468026806694A4FEB
:10248000D0E901C584EA0200704080EA0C0080EACD
:10249000050357F8210098426ED047F8213002EB2F
:1024A000C202424B04EBC40441481B684149024448
:1024B0001B6C497810F804E003EBC103D0793E4A65
:1024C0005F6805FB0CF340F6381C3C4CB6FBF2F69B
:1024D000B7FBF2F73A4A0CFB06FC54F82E40534384
:1024E000B3FBFCF2642A48D8634534BF11460C2183
:1024F000052A08D90A2A54D90F2A50D9142A8CBF80
:102500004FF47A71B8214FF4FA1307FB01FC03FB77
:1025100006F2B3FBF1F3B2FBFCF2D21A4FF0804C9F
:1025200002F5807294452BD80023BCF1000F2AD10C
:102530009B007D43BF33ADB2DA09256000EB400557
:1025400002FB01F3C9B204EB850541EA034102FB3A
:1025500003330C2269604FF47A715B0802FB004080
:102560004E4303F2E733B6FBF7F7013FC3F3130320
:10257000C7F31307AF60C360F0BD4FF47A71C2E7D1
:102580004FEA9C0CCEE70CEB030E96459CBF03EB89
:102590004C03A2EB0E024FEA9C0C5B08C5E77021CE
:1025A000B1E73021AFE700BFBC014020A4014020CB
:1025B000D74E40002801402040420F00B04D40005F
:1025C000A0860100704710B5C0B103680C4803EB4A
:1025D000C3030C4CC1188A781201A458C25C0B7951
:1025E000142101FB0233084A52F82330196841F0E4
:1025F000080119601A6822EA04021A6010BD00BFBF
:10260000D74E4000404A4000B44D4000DBE72DE982
:10261000FF41044600286ED0384A394ED0E90031D7
:10262000384803EBC30332F81150C1188A781701F8
:1026300006EB0212F759D2F80480C25C0B79142120
:1026400001FB0233304A52F8236073683B4023FA9F
:1026500008F3AB424FD04CF2503303AA02A901A8B1
:10266000FFF74CFA02A9039A01A8FFF757FA73681B
:10267000D90304D50028F5D02168012039E00028CD
:10268000FAD1336805FA08F503AA02A95D4001A84A
:102690003D405D404CF2503345F007053560FFF793
:1026A0002DFA039A02A901A8FFF738FA73685A07AE
:1026B00002D40028F5D0DFE70028DDD14CF25033FA
:1026C00003AA02A901A8FFF719FA039A02A901A80F
:1026D000FFF724FA7368DB0302D50028F5D0CBE7B7
:1026E0000028C9D17368C3F34243012B03D021688A
:1026F0000320FFF7FDF904B0BDE8F081304E400043
:10270000404A4000D74E4000B44D40002DE9FF4103
:10271000044600286ED0394A394ED0E90031394894
:1027200003EBC30332F81150C1188A78170106EB86
:102730000212F759D2F80480C25C0B79142101FB14
:102740000233314A52F8236073683B4023FA08F39E
:10275000AB424FD04CF2503303AA02A901A8FFF7B5
:10276000CDF902A9039A01A8FFF7D8F97368D90334
:1027700004D50028F5D02168012039E00028FAD1DD
:10278000336805FA08F503AA02A95D4001A83D4097
:102790005D404CF2503345F004053560FFF7AEF96B
:1027A000039A02A901A8FFF7B9F973685A0702D47E
:1027B0000028F5D0DFE70028DDD14CF2503303AA22
:1027C00002A901A8FFF79AF9039A02A901A8FFF745
:1027D000A5F97368DB0302D50028F5D0CBE7002804
:1027E000C9D17368C3F34243012B03D0216803208E
:1027F000FFF77EF904B0BDE8F08100BF304E400025
:10280000404A4000D74E4000B44D40002DE9FF4102
:102810000546002855D02C4A2C4CD0E900312C48D4
:1028200003EBC30332F81160C1188A78170104EB77
:102830000212E759D2F80480C25C01A80B79142176
:1028400001FB0233234A02A952F8234003AA23685A
:1028500043F00C0323604CF25033FFF74FF9039A17
:1028600002A901A8FFF75AF963689A0304D5002862
:10287000F5D0296801201FE00028FAD1236806FA64
:1028800008F603AA02A95E4001A83E405E40266009
:10289000236823F00C0323604CF25033FFF72EF92A
:1028A000039A02A901A8FFF739F963689B0306D4CC
:1028B0000028F5D029680320FFF71AF901E0002865
:1028C000F8D104B0BDE8F081304E4000404A4000ED
:1028D000D74E4000B44D40002DE9FF410646002888
:1028E0003DD003681F4A2048D55C03EBC3031F4C4F
:1028F000C1188A78170104EB0212E759D2F8048054
:10290000C25C01A80B79142101FB0233184A02A909
:1029100052F8234003AA236843F00C0323604CF2CF
:102920005033FFF7EBF8039A02A901A8FFF7F6F876
:1029300063689B0306D50028F5D031680120FFF7B6
:10294000D7F80CE00028F8D1236805FA08F55D40B7
:102950003D405D402560236823F00C03236004B0F4
:10296000BDE8F0815C4E4000D74E4000404A400038
:10297000B44D40004068064B064933F810304A68B1
:102980001B0322F4405203F4405313434B6070473F
:10299000044E40000080284008B1FFF7EBBF7047AD
:1029A000034B45F6F0221A604AF20F521A60704744
:1029B00000C02D401FB57E4CD4F81433DA012CD45E
:1029C000D4F8343302A901A843F08073C4F8343337
:1029D000D4F8003343F00103C4F80033D4F80433CF
:1029E00043F00103C4F80433FFF7DAFF4CF250332D
:1029F00003AAFFF783F8039A02A901A8FFF78EF84C
:102A0000D4F81433DB0106D40028F4D007210120C8
:102A1000FFF76EF801E00028F8D1654CD4F81433C4
:102A200098022CD4D4F8343302A901A843F400133B
:102A3000C4F83433D4F8003343F00103C4F800334E
:102A4000D4F8043343F00103C4F80433FFF7A8FFBC
:102A50004CF2503303AAFFF751F802A9039A01A8D8
:102A6000FFF75CF8D4F81433990206D40028F4D0A8
:102A700005210120FFF73CF801E00028F8D14C4C7B
:102A8000D4F814331A032CD4D4F8343302A901A88F
:102A900043F40023C4F83433D4F8003343F0010383
:102AA000C4F80033D4F8043343F00103C4F804330A
:102AB000FFF776FF4CF2503303AAFFF71FF8039A93
:102AC00002A901A8FFF72AF8D4F814331B0306D48F
:102AD0000028F4D006210120FFF70AF801E00028C1
:102AE000F8D1334CD4F8143318042CD4D4F834333C
:102AF00002A901A843F40043C4F83433D4F80033E6
:102B000043F00103C4F80033D4F8043343F0010365
:102B1000C4F80433FFF744FF4CF2503303AAFEF726
:102B2000EDFF02A9039A01A8FEF7F8FFD4F81433C9
:102B3000190406D40028F4D07B210120FEF7D8FF29
:102B400001E00028F8D11A4CD4F81033DA012CD463
:102B5000D4F8303302A901A843F08073C4F83033AD
:102B6000D4F8003343F00103C4F80033D4F804333D
:102B700043F00103C4F80433FFF712FF4CF2503363
:102B800003AAFEF7BBFF039A02A901A8FEF7C6FF3E
:102B9000D4F81033DB0106D40028F4D07B210120C7
:102BA000FEF7A6FF01E00028F8D104B010BD00BF79
:102BB00000C02D40024B01201B689B68184700BFD6
:102BC000C40140201FB5012301A8ADF80830034B14
:102BD0001B685B68984705B05DF804FBC4014020A2
:102BE000024B03201B689B68184700BFC8014020A8
:102BF0001FB5012301A8ADF80830034B1B685B68C3
:102C0000984705B05DF804FBC8014020012917D0A2
:102C1000022917D10C4B1A78A2B901220B490C4892
:102C20001A70CB780B4A03EB430302EB8303036078
:102C30008B7803EB430302EB8302074B1A60704768
:102C4000FFF7B8BE704700BFC0014020605340008E
:102C5000C8014020FC534000C401402001F0D8B816
:102C6000FFF7FCBF01F0B2B808B100BEFDE7704746
:102C700000207047B1FA81F0400970477047002981
:102C800018BF00207047000008B5FEF7B7F8094BE1
:102C900053F820203AB9EFF31082D10700D472B66E
:102CA000054941F8202053F82020013243F8202024
:102CB00008BD00BF504140206041402008B5FEF7EC
:102CC0009DF8084B53F82020013A43F82020064A8B
:102CD00052F82020D20703D453F8203003B962B64B
:102CE00008BD00BF504140206041402008B5FEF7BC
:102CF00085F8094B53F820203AB9EFF31082D10739
:102D000000D472B6054941F8202053F82020013242
:102D100043F8202008BD00BF104140202041402042
:102D200008B5FEF76BF8084B53F82020013A43F83A
:102D30002020064A52F82020D20703D453F820302E
:102D400003B962B608BD00BF1041402020414020B9
:102D500008B5FEF753F8094B53F820203AB9EFF3C2
:102D60001082D10700D472B6054941F8202053F8EB
:102D70002020013243F8202008BD00BF3041402010
:102D80004041402008B5FEF739F8084B53F82020A1
:102D9000013A43F82020064A52F82020D20703D4F3
:102DA00053F8203003B962B608BD00BF304140205F
:102DB0004041402008B5FEF721F8094B53F8202088
:102DC0003AB9EFF31082D10700D472B6054941F841
:102DD000202053F82020013243F8202008BD00BFF6
:102DE000404440208043402008B5FEF707F8084BD8
:102DF00053F82020013A43F82020064A52F82020B8
:102E0000D20703D453F8203003B962B608BD00BF1F
:102E1000404440208043402008B5FDF7EFFF094BB8
:102E200053F820203AB9EFF31082D10700D472B6DC
:102E3000054941F8202053F82020013243F8202092
:102E400008BD00BFB04140204042402008B5FDF71A
:102E5000D5FF084B53F82020013A43F82020064ABA
:102E600052F82020D20703D453F8203003B962B6B9
:102E700008BD00BFB04140204042402008B5FDF7EA
:102E8000BDFF094B53F820203AB9EFF31082D10768
:102E900000D472B6054941F8202053F820200132B1
:102EA00043F8202008BD00BF10444020604240206D
:102EB00008B5FDF7A3FF084B53F82020013A43F86B
:102EC0002020064A52F82020D20703D453F820309D
:102ED00003B962B608BD00BF1044402060424020E4
:102EE00008B5FDF78BFF094B53F820203AB9EFF3F3
:102EF0001082D10700D472B6054941F8202053F85A
:102F00002020013243F8202008BD00BFD0434020DC
:102F10005044402008B5FDF771FF084B53F82020BE
:102F2000013A43F82020064A52F82020D20703D461
:102F300053F8203003B962B608BD00BFD04340202B
:102F40005044402008B5FDF759FF094B53F82020A5
:102F50003AB9EFF31082D10700D472B6054941F8AF
:102F6000202053F82020013243F8202008BD00BF64
:102F7000C0444020C041402008B5FDF73FFF084B4A
:102F800053F82020013A43F82020064A52F8202026
:102F9000D20703D453F8203003B962B608BD00BF8E
:102FA000C0444020C041402008B5FDF727FF094B31
:102FB00053F820203AB9EFF31082D10700D472B64B
:102FC000054941F8202053F82020013243F8202001
:102FD00008BD00BFA0434020F041402008B5FDF7E8
:102FE0000DFF084B53F82020013A43F82020064AF1
:102FF00052F82020D20703D453F8203003B962B628
:1030000008BD00BFA0434020F041402008B5FDF7B7
:10301000F5FE094B53F820203AB9EFF31082D1079F
:1030200000D472B6054941F8202053F8202001321F
:1030300043F8202008BD00BF50434020E04340201B
:1030400008B5FDF7DBFE084B53F82020013A43F8A2
:103050002020064A52F82020D20703D453F820300B
:1030600003B962B608BD00BF50434020E043402092
:1030700008B5FDF7C3FE094B53F820203AB9EFF32A
:103080001082D10700D472B6054941F8202053F8C8
:103090002020013243F8202008BD00BF20424020FC
:1030A000D044402008B5FDF7A9FE084B53F8202076
:1030B000013A43F82020064A52F82020D20703D4D0
:1030C00053F8203003B962B608BD00BF204240204B
:1030D000D044402008B5FDF791FE094B53F820205D
:1030E0003AB9EFF31082D10700D472B6054941F81E
:1030F000202053F82020013243F8202008BD00BFD3
:10310000204340207041402008B5FDF777FE084B72
:1031100053F82020013A43F82020064A52F8202094
:10312000D20703D453F8203003B962B608BD00BFFC
:10313000204340207041402008B5FDF75FFE094B59
:1031400053F820203AB9EFF31082D10700D472B6B9
:10315000054941F8202053F82020013243F820206F
:1031600008BD00BFE0424020B044402008B5FDF754
:1031700045FE084B53F82020013A43F82020064A28
:1031800052F82020D20703D453F8203003B962B696
:1031900008BD00BFE0424020B044402008B5FDF724
:1031A0002DFE094B53F820203AB9EFF31082D107D6
:1031B00000D472B6054941F8202053F8202001328E
:1031C00043F8202008BD00BFA041402060444020BB
:1031D00008B5FDF713FE084B53F82020013A43F8D9
:1031E0002020064A52F82020D20703D453F820307A
:1031F00003B962B608BD00BFA04140206044402032
:1032000008B5FDF7FBFD094B53F820203AB9EFF361
:103210001082D10700D472B6054941F8202053F836
:103220002020013243F8202008BD00BFB0424020DA
:103230008044402008B5FDF7E1FD084B53F82020FD
:10324000013A43F82020064A52F82020D20703D43E
:1032500053F8203003B962B608BD00BFB042402029
:103260008044402008B5FDF7C9FD094B53F82020E4
:103270003AB9EFF31082D10700D472B6054941F88C
:10328000202053F82020013243F8202008BD00BF41
:10329000F04340201043402008B5FDF7AFFD084B38
:1032A00053F82020013A43F82020064A52F8202003
:1032B000D20703D453F8203003B962B608BD00BF6B
:1032C000F04340201043402008B5FDF797FD094B1F
:1032D00053F820203AB9EFF31082D10700D472B628
:1032E000054941F8202053F82020013243F82020DE
:1032F00008BD00BF904340200044402008B5FDF7C2
:103300007DFD084B53F82020013A43F82020064A5F
:1033100052F82020D20703D453F8203003B962B604
:1033200008BD00BF904340200044402008B5FDF791
:1033300065FD094B53F820203AB9EFF31082D1070D
:1033400000D472B6054941F8202053F820200132FC
:1033500043F8202008BD00BF70444020E0444020D6
:1033600008B5FDF74BFD084B53F82020013A43F810
:103370002020064A52F82020D20703D453F82030E8
:1033800003B962B608BD00BF70444020E04440204D
:1033900008B5FDF733FD094B53F820203AB9EFF398
:1033A0001082D10700D472B6054941F8202053F8A5
:1033B0002020013243F8202008BD00BFD04140202A
:1033C0005042402008B5FDF719FD084B53F8202066
:1033D000013A43F82020064A52F82020D20703D4AD
:1033E00053F8203003B962B608BD00BFD041402079
:1033F0005042402008B5FDF701FD094B53F820204D
:103400003AB9EFF31082D10700D472B6054941F8FA
:10341000202053F82020013243F8202008BD00BFAF
:10342000C04240204043402008B5FDF7E7FC084B70
:1034300053F82020013A43F82020064A52F8202071
:10344000D20703D453F8203003B962B608BD00BFD9
:10345000C04240204043402008B5FDF7CFFC094B57
:1034600053F820203AB9EFF31082D10700D472B696
:10347000054941F8202053F82020013243F820204C
:1034800008BD00BFB04340203044402008B5FDF7E0
:10349000B5FC084B53F82020013A43F82020064A97
:1034A00052F82020D20703D453F8203003B962B673
:1034B00008BD00BFB04340203044402008B5FDF7B0
:1034C0009DFC094B53F820203AB9EFF31082D10745
:1034D00000D472B6054941F8202053F8202001326B
:1034E00043F8202008BD00BF904440209041402078
:1034F00008B5FDF783FC084B53F82020013A43F848
:103500002020064A52F82020D20703D453F8203056
:1035100003B962B608BD00BF9044402090414020EE
:1035200008B5FDF76BFC094B53F820203AB9EFF3CF
:103530001082D10700D472B6054941F8202053F813
:103540002020013243F8202008BD00BF0042402067
:103550008042402008B5FDF751FC084B53F820206D
:10356000013A43F82020064A52F82020D20703D41B
:1035700053F8203003B962B608BD00BF00424020B6
:103580008042402008B5FDF739FC094B53F8202054
:103590003AB9EFF31082D10700D472B6054941F869
:1035A000202053F82020013243F8202008BD00BF1E
:1035B000F04240207043402008B5FDF71FFC084B47
:1035C00053F82020013A43F82020064A52F82020E0
:1035D000D20703D453F8203003B962B608BD00BF48
:1035E000F04240207043402008B5FDF707FC094B2E
:1035F00053F820203AB9EFF31082D10700D472B605
:10360000054941F8202053F82020013243F82020BA
:1036100008BD00BF904240200043402008B5FDF7A0
:10362000EDFB084B53F82020013A43F82020064ACE
:1036300052F82020D20703D453F8203003B962B6E1
:1036400008BD00BF904240200043402008B5FDF770
:10365000D5FB094B53F820203AB9EFF31082D1077C
:1036600000D472B6054941F8202053F820200132D9
:1036700043F8202008BD00BF30424020A042402037
:1036800008B5FDF7BBFB084B53F82020013A43F87F
:103690002020064A52F82020D20703D453F82030C5
:1036A00003B962B608BD00BF30424020A0424020AE
:1036B00008B5FDF7A3FB094B53F820203AB9EFF307
:1036C0001082D10700D472B6054941F8202053F882
:1036D0002020013243F8202008BD00BF30434020A5
:1036E000E041402008B5FDF789FB084B53F8202046
:1036F000013A43F82020064A52F82020D20703D48A
:1037000053F8203003B962B608BD00BF30434020F3
:10371000E041402008B5FDF771FB094B53F820202C
:103720003AB9EFF31082D10700D472B6054941F8D7
:10373000202053F82020013243F8202008BD00BF8C
:1037400020444020D042402008B5FDF757FB084BED
:1037500053F82020013A43F82020064A52F820204E
:10376000D20703D453F8203003B962B608BD00BFB6
:1037700020444020D042402008B5FDF73FFB094BD4
:1037800053F820203AB9EFF31082D10700D472B673
:10379000054941F8202053F82020013243F8202029
:1037A00008BD00BF80414020C043402008B5FDF760
:1037B00025FB084B53F82020013A43F82020064A05
:1037C00052F82020D20703D453F8203003B962B650
:1037D00008BD00BF80414020C043402008B5FDF730
:1037E0000DFB094B53F820203AB9EFF31082D107B3
:1037F00000D472B6054941F8202053F82020013248
:1038000043F8202008BD00BF70424020A044402063
:1038100008B5FDF7F3FA084B53F82020013A43F8B6
:103820002020064A52F82020D20703D453F8203033
:1038300003B962B608BD00BF70424020A0444020DA
:1038400008B5FDF7DBFA094B53F820203AB9EFF33E
:103850001082D10700D472B6054941F8202053F8F0
:103860002020013243F8202008BD00BF60434020E3
:103870001042402008B5FDF7C1FA084B53F820204C
:10388000013A43F82020064A52F82020D20703D4F8
:1038900053F8203003B962B608BD00BF6043402032
:1038A000104240200246003838B518BF0120FDF70D
:1038B000B3FA50689A288CBF00200120FDF7ACFABB
:1038C0009368906A022BD46817BFDB02002303F4CD
:1038D000006343F4005302281EBF410501F40011A8
:1038E0000B43516A02291EBF490401F400310B4306
:1038F000116A02291EBF090401F480310B4391694A
:1039000002291EBF090201F480710B43D16902290B
:103910001EBF890101F040010B43D16A02291EBF7D
:10392000C90401F400210B43516902291EBF890318
:1039300001F480410B43116902291EBF490101F0C6
:1039400020010B4304F00F010B4354B9012808D1A7
:1039500092F8B800022804D09188244C81F0030129
:103960000855D2E90001903140F82130D36A012B8B
:1039700017D01F4B116BD3F80C3641BB526B62B1A1
:10398000110449BF42F07F42134342F47F0242F4E4
:10399000794244BF42F081021340154AC2F80C3606
:1039A00038BD02F1380302F17804124D53F8040BCC
:1039B000102809D0D96BB1F5CC7F05D800F00F00E5
:1039C00001F5247145F821009C42EFD1D1E70804AC
:1039D00049BF41F07F410B4341F47F0141F47941FC
:1039E00044BF41F081010B40C8E700BF00132940EC
:1039F00000C02A4000002940F8B5094B04460E4695
:103A000000251960BC27074B1860A54201D1002092
:103A1000F8BD07FB05600135FFF744FFF5E700BF80
:103A2000CC014020D001402070B504460038164635
:103A30000D4618BF0120FDF7EFF90F298CBF0020BC
:103A40000120FDF7E9F9FFF7E7F9012E13D0022E67
:103A500007D0AEB954F8253023F4006343F4005383
:103A600003E054F8253023F4005344F82530BDE832
:103A70007040FFF7EBB954F8253043F42053F4E7D6
:103A800000BEFDE7F8B5044600381E460D4618BFD7
:103A900001201746FDF7C0F90F2906F00F068CBF6D
:103AA00000200120FDF7B8F9FFF7E8F954F82530B8
:103AB000002F23F4001314BF4FF40012002244F827
:103AC000253054F82530134344F8253054F8253078
:103AD00023F00F0344F8253054F825301E4344F8F2
:103AE0002560BDE8F840FFF7E3B90F292DE9F04163
:103AF00005468CBF002001200E4690461C46069FBE
:103B0000FDF78AF9FFF7ECF985B155F82630B8F1E1
:103B1000000F23F4002314BF4FF40022002245F8C5
:103B2000263055F82630134345F82630102F10D094
:103B3000B4F5CC7F0DD8A30007F00F0703F1804345
:103B400003F52413D3F8402A22F00F021743C3F8D9
:103B5000407ABDE8F041FFF7DDB970B504460038A2
:103B600016460D4618BF0120FDF756F90F298CBFE8
:103B700000200120FDF750F9FFF7E4F9032E0FD8DC
:103B8000DFE806F002121D2254F8253023F400135A
:103B900044F8253054F8253043F4002344F8253008
:103BA000BDE87040FFF7E8B954F8253023F400234E
:103BB00044F8253054F8253043F40013EEE754F868
:103BC000253043F42013E9E754F8253023F420137B
:103BD000E4E7F8B5144B044600380D461A68134B59
:103BE00018BF01201E68FDF717F90F298CBF0020B0
:103BF0000120FDF711F90E4B23449B0901EB031340
:103C00000021B14202D14FF0FF3009E01046BC3232
:103C100052F8B87C9F4204D1FFF744FE54F82500C7
:103C2000F8BD0131EDE700BFCC014020D0014020BC
:103C3000C0FDD6BFF8B52E4B0546003816460C46DB
:103C400019682C4B18BF01201A68FDF7E5F80F2EF4
:103C50008CBF00200120FDF7DFF8274B4FF0000C50
:103C60002B449B0906EB031394453DD00F46BC3112
:103C700051F8B80C984238D13A6807F1780104F14C
:103C80007800C4E9002397F8B830402284F8B830AF
:103C9000FDF7CCF8402207F1380104F13800FDF7B8
:103CA000C5F855F8263003F00F02E260C3F3401266
:103CB00022619A044CBFC3F3C0220222A260C3F364
:103CC00080326261C3F30022A261C3F38012E26119
:103CD000C3F340426262C3F300422262C3F3C042B4
:103CE000C3F34053E262A362F8BD0CF1010CBBE7E1
:103CF000CC014020D0014020C0FDD6BF431E012B87
:103D000010B5044601D900BEFDE7FFF715FA064BD2
:103D1000012C1A680CBF42F0010242F00202BDE819
:103D200010401A60FFF722BA00402C40F8B5064652
:103D30000D4609BB00BEFDE715F83320022A01D964
:103D400000BEFDE714430133B342F5D1FFF726FA75
:103D50001D4A00212F1D13684FF6FF7C012023EA26
:103D600004031360B1420AD1174B1A6814431C6054
:103D7000BDE8F840FFF72CBA00242346E4E715F825
:103D80003130B3B157F83120624512D01BB21F2A2F
:103D900003EB83034FEA031303F1402303F53013CE
:103DA00009D9203AD3F804E000FA02F242EA0E02FE
:103DB0005A600131D6E7D3F800E000FA02F242EA95
:103DC0000E021A60F5E700BF00402C400C4A0D4877
:103DD00012680368126C10B50B4CA17BE47B02EBFC
:103DE000C10102EBC4024968526891428ABF23F0C4
:103DF000400323F0010343F00103036010BD00BF43
:103E0000A40140200040264028014020000000007E
:103E10005FF800F00100402003010200000029408B
:103E200000000000000000000302010D1501000267
:103E300052000406444340001C434000F44240004A
:103E40008C4240009041400084414000000000004E
:103E500074414000E43E400000000000943E4000F9
:103E6000643E40000000000000000000010000006F
:103E7000006CDC02050000000024F4000E000000CD
:103E8000006889090F00000000B4C404100000009D
:103E9000005A62020500000000000000000000005F
:103EA0000024F400000000000E00000000000000EC
:103EB0000000000000688909000000000F000000F9
:103EC000000000000000000000B4C4040000000076
:103ED00011000000000000000000000000B4C40455
:103EE00000000000170000000100000018000000A2
:103EF0000100000019000000010000001B0000008C
:103F0000010000001C000000010000001D00000076
:103F1000010000001F000000010000002000000060
:103F2000010000002100000001000000220000004C
:103F30000100000023000000010000002400000038
:103F40000100000025000000010000002600000024
:103F50000100000027000000010000002800000010
:103F60000100000029000000010000002A000000FC
:103F7000010000002B000000010000002C000000E8
:103F8000010000002D000000010000002E000000D4
:103F9000010000002F0000000100000030000000C0
:103FA00001000000310000000100000032000000AC
:103FB0000100000033000000010000003400000098
:103FC0000100000035000000010000003600000084
:103FD0000100000037000000010000003800000070
:103FE0000100000039000000010000003A0000005C
:103FF000010000003B000000010000003C00000048
:10400000010000003D000000010000003E00000033
:10401000010000003F00000001000000400000001F
:10402000010000004100000001000000420000000B
:1040300001000000440000000100000049000000F1
:10404000010000004A000000010000004B000000D9
:10405000010000004D000000010000004E000000C3
:10406000010000004F0000000100000051000000AE
:104070000100000052000000010000005300000099
:104080000100000054000000010000005500000085
:104090000100000056000000010000005700000071
:1040A000010000005800000001000000590000005D
:1040B000010000005A000000010000005B00000049
:1040C000010000005C000000010000005D00000035
:1040D000010000005E000000010000005F00000021
:1040E000010000006000000001000000610000000D
:1040F00001000000620000000100000063000000F9
:104100000100000066000000010000006A000000DD
:10411000010000006B000000010000006C000000C6
:10412000010000006D000000010000006E000000B2
:104130000100000071000000010000007300000099
:104140000100000074000000010000007500000084
:10415000010000007600000001000000780000006F
:104160000100000079000000010000007A0000005A
:10417000010000000B000000000000000C00000027
:10418000000000000E000000010000000E00000012
:10419000080000000200000000000000090000000C
:1041A00003000000000000000A00000003000000FF
:1041B000000000000E0000000100000000000000F0
:1041C0000F000000020000000000000010000000CE
:1041D00004000000000000001100000002000000C8
:1041E00000000000120000000400000000000000B9
:1041F0001300000004000000000000001400000094
:104200000100000000000000150000000200000096
:10421000000000001A000000020000000000000082
:104220004300000001000000000000004500000005
:104230000100000000000000470000000100000035
:10424000000000004C00000003000000000000001F
:1042500050000000020000000000000068000000A4
:1042600002000000000000007000000001000000DB
:1042700000000000720000000100000000000000CB
:104280007700000001000000000000000D000000A9
:104290000900000015000000050000001A000000E1
:1042A0000100000043000000010000004500000084
:1042B0000100000047000000010000004C00000069
:1042C0000100000050000000010000006800000034
:1042D00001000000690000000600000070000000FE
:1042E00001000000720000000100000077000000E3
:1042F00001000000070000000100000005000000B0
:104300000002000000000000780100000000000032
:104310000000000000000000000000000500000098
:104320000024F4000100310000010C000000000036
:10433000060000000080000001007D000000000079
:10434000000000000100000001000001000000006A
:104350000200000000000000000000000400000057
:104360000000000000000000000108000001000043
:104370000001090000020000000000000000000031
:10438000000000000000000000000000000000002D
:10439000000000000000000000000000000000001D
:1043A000000000000000000000000000000000000D
:1043B00000000000000000000001010002000000F9
:1043C00001021C000000001001021D00000000207E
:1043D00000000000000000000103000001000000D8
:1043E00001010000010000000101010002000000C5
:1043F000010003000800000001000400100000009C
:10440000010005002000000001000600400000003F
:10441000010007008000000001000800000100000A
:10442000010009000002000001000A000004000071
:1044300001000B000008000001000C00001000004B
:1044400001000D000020000001000E0000400000EF
:1044500001000F00008000000200040010000000B6
:1044600002000500200000000200060040000000DD
:1044700002000700800000000200080000010000A8
:10448000020009000002000002000A00000400000F
:1044900002000B000008000002000C0000100000E9
:1044A00002000D000020000002000E00004000008D
:1044B00002000F0000800000020010000000010058
:1044C00002001100000002000200120000000400BF
:1044D0000200130000000800020014000000100099
:1044E000020015000000200002001600000040003D
:1044F00002001700000080000100160000004000CC
:1045000000000000000000000000000000000000AB
:104510000000000000000000020100000100000097
:104520000001020004000000000103000800000078
:1045300000000000000000000100170000008000E3
:10454000000000000000000000000000000000006B
:10455000000000000000000000000000000000005B
:10456000000000000000000000000000000000004B
:10457000010201000200000001020200040000002C
:104580000102030008000000010204001000000006
:10459000000000000000000000000000000000001B
:1045A00001020900000200000000000000000000FD
:1045B00000000000000000000000000000000000FB
:1045C00001001F0000000080000106004000000004
:1045D000000107008000000001021400000010002C
:1045E000010215000000200001021600000040003A
:1045F0000102170000008000010218000000000105
:10460000010219000000000200000000000000008C
:10461000000000000000000001020A000004000089
:1046200001020B000008000001020C000010000055
:1046300001020D000020000000000000000000004A
:10464000000000000000000000000000000000006A
:10465000000000000000000000000000000000005A
:10466000000000000000000000000000000000004A
:10467000000000000000000000000000000000003A
:10468000000000000000000000000000000000002A
:104690000000000000000000010018000000000100
:1046A000000000000000000000000000000000000A
:1046B00000010C000010000000010D0000200000AF
:1046C00001011F0000000080000000000000000049
:1046D00000000000000000000201130000000800BC
:1046E000010102000400000001021B00000000089C
:1046F0000201170000008000020018000000000105
:1047000001010A0000040000000000000000000099
:104710000000000000000000000000000000000099
:104720000000000000000000000000000000000089
:10473000000000000000000001030800000100006C
:1047400001001D000000002002001D0000000020EC
:104750000000000000000000000000000000000059
:10476000000000000000000001001C00000000101C
:1047700002001B0000000008000000000000000014
:10478000000000000000000001021F000000008087
:104790000001000001000000010111000000020002
:1047A00001010D00002000000000000000000000DA
:1047B00000000000000000000000000000000000F9
:1047C00000000000000000000000000000000000E9
:1047D00000000000000000000000000000000000D9
:1047E00000000000000000000000000000000000C9
:104A40000000000F1800000000000000000000003F
:104A50000000003F1800000000003F0010000000B0
:104A60000000003F180000000000070010000000D8
:104A70000000001F1800000000003F0010000000B0
:104A80000000001F1800000000003F0010000000A0
:104A90000000001F1800000000003F001000000090
:104AA0000000000000000000000000000000000006
:104AB0000000001F180000000000030010000000AC
:104AC0000000001F1800000000000300100000009C
:104AD00000000000000000000000000000000000D6
:104AE0000000000F18000000000007001000000088
:104AF0000000001F1800000000000100100000006E
:104B00000000001F1800000000000100100000005D
:104B10000000000000000000000000000000000095
:104B20000000000000000000000000000000000085
:104B30000000000F18000000000007001000000037
:104B40000000000F18000000000007001000000027
:104B50000000000F1800000000000F00100000000F
:104B60000000000F18000000000007001000000007
:104B70000000000F180000000000070010000000F7
:104B80000000000F180000000000070010000000E7
:104B90000000000000000000000000000000000015
:104BA0000000000F180000000000070010000000C7
:104BB0000000000F180000000000070010000000B7
:104BC00000000000000000000000000000000000E5
:104BD00000000000000000000000000000000000D5
:104BE00000000000000000000000000000000000C5
:104BF00000000000000000000000000000000000B5
:104C000000000000000000000000000000000000A4
:104C10000000000000000000000000000000000094
:104C20000000000000000000000000000000000084
:104C30000000000000000000000000000000000074
:104C40000000000000000000000000000000000064
:104C50000000000000000000000000000000000054
:104C60007B000000070000000000000001000000C1
:104C7000010000000100000001000000020000002F
:104C80000200000003000000030000000300000019
:104C90000300000004000000040000000000000009
:104CA0000000000000000000000000000000000004
:104CB00000000000000000000000000000000000F4
:104CC00000C12D4000C32D4000C52D400000000054
:104CD00010C12D4010C32D4010C52D400000000014
:104CE00030C12D4030C32D4030C52D4000000000A4
:104CF00005000000010000001000000000C02B4073
:104D00007B0000007B0000007B0000000000000032
:104D10007B0000007B0000007B0000000000000022
:104D20000E000000050000001000000060C02B40D5
:104D30000F000000010000001000000080C02B40A8
:104D4000110000000100000010000000A0C02B4076
:104D50007B0000007B0000007B00000000000000E2
:104D6000050000007B0000007B0000000E0000003A
:104D70000F000000110000007B00000000C02B406D
:104D8000000000000000000060C02B4080C02B40ED
:104D9000A0C02B400000000000002E4002000000D8
:104DA000000000000000000000402D4000C02C402A
:104DB00000802D4000832D4040832D4080832D4076
:104DC000C0832D4000842D4040842D4080842D40A0
:104DD000C0842D4000852D4040852D4080852D408C
:104DE000C0852D4000000000000000000000000011
:104DF00000000000000000000000000000000000B3
:104E0000000000000000020000000100000003009C
:104E10000000000000000000000000000000000092
:104E20000000000000000000000000000000000082
:104E3000000000000000010000000200040000006B
:104E400000000800090019001800000010001600FA
:104E500017001300000000000000320000000000F6
:104E60000000000000000000000000000000000042
:104E70000000000000000000000000000000000032
:104E80000000000000000000000000000000000022
:104E90000000000000000000000000000000000012
:104EA0000000000000000000000000000000000002
:104EB00000000000000000000000000000000000F2
:104EC00000000000000000000000000000000000E2
:104ED00000000000000000000000000000000000D2
:104EE00000010000000000000000020000000000BF
:104EF00000000000000000000000000003000000AF
:104F0000000000000001000000000000000102009D
:104F10000000000000000001000000000000000090
:104F20000300000000000000000400000000000773
:104F3000000005000000010000000000000000006B
:104F4000000000000000000000000000000300005E
:104F5000000000000000061600000000000300062C
:104F60001000000100000400071100000200000012
:104F700000061200000300000500071300000400F3
:104F800000000007140000050000000007170000E3
:104F90000600000000010100060000000000000003
:104FA0000000000000000001000000000000000000
:104FB00001000000000100000001000000000A00E4
:104FC00000000102000500000000000100000000D8
:104FD0000B00000001000000000C000000010000B8
:104FE00000000E00000000000000000000000001B2
:104FF000000000000F000000010000000010000091
:10500000000100000000110000000100000000127B
:10501000000000010000000013000000010000007B
:105020000014000000010000000015000000010055
:105030000000001600000001000000001700000042
:10504000010000000018000000010000000019002D
:10505000000001000000001A000000010000000034
:105060001B00000001000000001C00000001000007
:1050700000001D00000001000000001E00000001F3
:10508000000000001F0000000100000000200000E0
:1050900000010000000021000000010000000022CB
:1050A00000000001000000002300000001000000DB
:1050B00000240000000100000000250000000100A5
:1050C0000000002600000001000000002700000092
:1050D000010000000028000000010000000029007D
:1050E000000001000000002A000000010000000094
:1050F0002B00000001000000002C00000001000057
:1051000000002D00000001000000002E0000000142
:10511000000000002F00000001000000003000002F
:10512000000100000000310000000100000000321A
:105130000000000203000700000000000100000062
:105140000036000000020400090000000000010019
:10515000000000360000000205000800000000000A
:1051600001000000003600000001000000003700D0
:1051700000000100000000380000000100000000F5
:105180003A000000020700030000000000010000D8
:10519000000041000000010000000042000000018A
:1051A00000000000430000000208000400000000AE
:1051B0000001000000004400000001000000004762
:1051C00000000001000000004B0000000100000092
:1051D000004C00000001000000004D000000010034
:1051E0000000004E00000001000000004F00000021
:1051F000010000000050000000010000000051000C
:10520000000001000000005200000001000000004A
:1052100053000000010000000056000000010000E3
:1052200000005700000001000000005800000001CD
:1052300000000000590000000100000000660000AE
:105240000001000000006900000001000000006A89
:1052500000000001000000006B000000020A000ACC
:10526000000000000001000000006E0000000100CE
:105270000000006E00000001000000006E00000051
:105280000000000A00000000000400000000000010
:10529000000001000000006F00000001000000009D
:1052A000700000000100000000710000000100001B
:1052B0000000720000000100000000730000000107
:1052C000000000007A000000020B00010000000056
:1052D0000001000000007B000000020C0002000042
:1052E00000000001000000007C0000000100000040
:1052F00000800000000100000000810000000100AB
:1053000000000084000000010F000B0000000000FE
:105310000100000000850000000100000000860080
:1053200000000100000000870000000100000000F4
:105330000100000000000001000000000003010265
:105340000400000001000100000000000000000057
:10535000000000000000000001000000000000014B
:105360000003010200000000000001020000000034
:105370000000000000000000010100000101030224
:1053800002010101391B4000B51B40003B1B4000DE
:10539000811B4000591C4000591C40005B1C400010
:1053A000911C4000F51C4000F51C4000F51C40001D
:1053B000F71C4000F51C4000F91C40001D1D40007A
:1053C000491E4000651D4000851D4000B11D400084
:1053D000B31D4000E11D4000B71E4000B51E400057
:1053E000B91E4000B91E4000BB1E4000C11E400057
:1053F000C31E4000C51E4000D11F4000E91F4000F1
:10540000E91F4000EB1F4000AD204000ED1F4000B1
:10541000FD1F4000CD2040000D2040001D20400019
:105420002D204000E91F4000EB1F4000F12040000C
:10543000F3204000F5204000F1204000952240007C
:10544000F72040001D224000E9214000F5224000E5
:10545000F5224000F7224000F5224000FB224000E8
:10546000FD2240004523400015244000E923400070
:10547000FB2240007124400073244000C5254000F9
:10548000C5254000C72540000D2740000D264000DF
:105490000F264000D92840000D284000C5254000B7
:1054A0009929400006000000000040200C554000F3
:1054B000A055400000404020A0554000A4564000A8
:1054C00000C04020A4564000A45640000000002028
:1054D00000084000080C400000000000A4564000F6
:1054E000A456400008040020A4564000A4564000E2
:1054F0000300000000C0402000C0402010414020B8
:0C550000F0444020A0004020D4014020D6
:10550C001A4B1B4A1B68927B1B6C03EBC203194A98
:10551C005B6893421AD8184A934220D9174A93428F
:10552C001FD9174A934294BF032304231549CA6811
:10553C0022F41F4242EA0323BFF34F8FBFF36F8F56
:10554C00CA6822F40042CA60CB6070470E4A93428C
:10555C0009D90E4A934294BF06230723E6E7012399
:10556C00E4E70223E2E70523E0E700BFA4014020C3
:10557C0028014020C037F4098014EF0300E1F50541
:10558C00406BED0700C02E4000C2EB0B404CE30D0E
:04559C00AD1240000C
:1055A00000000000000000000000000000000000FB
:1055B00000000000000000000000000000000000EB
:1055C00000000000000000000000000000000000DB
:1055D00000000000000000000000000000000000CB
:1055E00000000000000000000000000000000000BB
:1055F00000000000000000000000000000000000AB
:10560000000000000000000000000000000000009A
:10561000000000000000000000000000000000008A
:10562000000000000000000000000000000000007A
:10563000000000000000000000000000000000006A
:10564000000000000000000000000000000000005A
:10565000000000000000000000000000000000004A
:10566000000000000000000000000000000000003A
:10567000000000000000000000000000000000002A
:10568000000000000000000000000000000000001A
:10569000000000000000000000000000000000000A
:0456A0000000000006
:0400000500400C208B
:00000001FF
